:100000000C9469060C9486060C9486060C94392F81
:100010000C9486060C9486060C9486060C94860630
:100020000C9486060C9486060C94E8160C94D6154F
:100030000C9497180C9486060C9486060C948606ED
:100040000C9486060C9486060C9486060C94860600
:100050000C9486060C942E180C9486060C94860636
:100060000C9486060C9486060C9486060C948606E0
:100070000C9486060C9486060C9486060C948606D0
:100080000C9486060C9486060C9486060C948606C0
:100090000C9486060C9486060C9486060C948606B0
:1000A0000C9486060C9486060C948606230929096E
:1000B00014091A092F0935093B099509090A9D09EF
:1000C00067096B09A1096E09A409AF097909FF093C
:1000D0007D09B3098109B709E1098509BB09EB0964
:1000E0008B09C109CB097209A8097509AB099009E7
:1000F000C609D709F709F90963099909120AE60A35
:10010000E60A180B180B8D0BA90BD00CD00CAE0BFC
:100110003C0C4D0C4D0C040D250D2A0D2F0D340DEE
:10012000390D3E0D430D480D4D0D520D590D5C0D11
:100130005F0D620D650D680D3D0A6B0D6E0D730D43
:10014000C92BF02B882DF02B882D382C5B2C882D7B
:100150004A2D5D2D00DA0281FFD9F1DB20A4A62E05
:10016000AF00A0C000A1C800AED580A81FD300403A
:100170008D1420001E0F0500047F3F1F643214649D
:100180003214783C1E1E140A05636F726E6500807F
:1001900081828384A0A1A2A3A4C0C1C2C3C4002041
:1001A0009798992020B7B8B92020D7D8D920002017
:1001B0009192932020B1B2B32020D1D2D32000203D
:1001C0009A9B9C2020BABBBC2020DADBDC200020DC
:1001D0009495962020B4B5B62020D4D5D620002002
:1001E0009D9E9F2020BDBEBF2020DDDEDF200020A1
:1001F0002020202000A7A800AFB000C600CA00C879
:1002000000A5A600ADAE008788008F9000C500C98C
:1002100000C700CB008586008D8E00ABAC00CFD030
:1002200000C600CA00C800A9AA00B1B2008B8C00A9
:10023000CDCE00C500C900C700CB00898A009192CD
:10024000002223252628292A2C2D2F30323335361B
:10025000383A3B3D3E4042434547494A4C4E505157
:10026000535557595A5C5E6062646668696B6D6F7E
:1002700071737577797B7D7F81838587898A8C8E81
:1002800090929496989A9C9E9FA1A3A5A7A8AAAC89
:10029000AEAFB1B3B4B6B8B9BBBCBEBFC1C2C3C5C3
:1002A000C6C7C9CACBCCCDCED0D1D2D2D3D4D5D665
:1002B000D7D7D8D9D9DADADBDBDBDCDCDCDCDCDD98
:1002C000DDDDDDDCDCDCDCDCDBDBDBDADAD9D9D87C
:1002D000D7D7D6D5D4D3D2D2D1D0CECDCCCBCAC914
:1002E000C7C6C5C3C2C1BFBEBCBBB9B8B6B4B3B143
:1002F000AFAEACAAA8A7A5A3A19F9E9C9A989694DE
:1003000092908E8C8A89878583817F7D7B797775B2
:1003100073716F6D6B6968666462605E5C5A595791
:10032000555351504E4C4A4947454342403E3D3B50
:100330003A3836353332302F2D2C2A2928262523DA
:100340002200AF00AE2B4314001A0008001500175E
:1003500000292104001600070009000A002D221DB3
:10036000001B00060019000500000000000000E36B
:100370000021522C002A00130012000C0018001C4F
:1003800000340033000F000E000D000B003932382E
:100390000037003600100011000000000000004C83
:1003A00024225228002B003A003B003C003D00650F
:1003B00000E0003E003F00400041004600E10042F6
:1003C000004300440045004800000000000000E336
:1003D0000001002C002A004B004D0052004A004949
:1003E0000034024E004F00510050004C00E5003830
:1003F000023702360200000000000000000000E6A4
:10040000002452280000001E022E002502260200B1
:100410000000002E022D023414321400000000648B
:100420000064022F1430140000000000000000E3FC
:100430000024522C002A002F022F00300227020035
:1004400000350020141F14300024021F023514222E
:10045000021E14230221020000000000000000E63A
:1004600000010028002B0000000000000000000038
:100470000029000000E100E200E3000000000000AD
:10048000000000000000000000000000000000E389
:100490000001002C002A0024022600250024003838
:1004A0000036003002230022002100300000002727
:1004B0000020001F001E003700000000000000E6C2
:1004C0000001002800007C00000000000000000087
:1004D000002078237825782778297800002178244F
:1004E00078267828782A780000000000000000E3D1
:1004F0000001002C000000000000000000000000CF
:1005000000000000000000000000000000000000EB
:10051000000000000000000000000000000000E6F5
:100520000001002C00000101010101010101010293
:100530000202020202020202030303030303030393
:10054000040404040404040505050505060606065E
:1005500006070707070708080808090909090A0A1A
:100560000A0B0B0B0C0C0C0D0D0D0E0E0E0F0F0FBE
:100570001010111111121213131414151516161749
:1005800017181819191A1A1B1B1C1D1D1E1E1F20B7
:1005900020212222232424252626272829292A2B04
:1005A0002C2D2D2E2F303132323334353637383929
:1005B0003A3B3C3D3E3F4041424344454647484923
:1005C0004A4C4D4E4F50515354555658595A5B5DF5
:1005D0005E5F616264656668696B6C6D6F70727393
:1005E0007577787A7B7D7E8082838587888A8C8EFA
:1005F0008F91939596989A9C9EA0A2A3A5A7A9AB2C
:10060000ADAFB1B3B5B7BABCBEC0C2C4C6C9CBCD1D
:10061000CFD1D4D6D8DBDDDFE2E4E7E9EBEEF0F3CF
:10062000F5F8FAFDFFFFAA7F554005010902A10177
:1006300085020901A10005091901290815002501F4
:100640009508750181020501093009311581257F61
:1006500095027508810609381581257F9501750871
:100660008106050C0A38021581257F9501750881E0
:1006700006C0C005010980A101850319012AB70040
:10068000150126B700950175108100C0050C090100
:10069000A101850419012AA002150126A0029501D5
:1006A00075108100C005010906A10185060507191D
:1006B000E029E71500250195087501810205071954
:1006C0000029EF1500250195F07501810205081933
:1006D000012905950575019102950175039101C0E8
:1006E00005010906A101050719E029E71500250103
:1006F00095087501810295017508810105071900AA
:1007000029FF150026FF00950675088100050819C8
:10071000012905950575019102950175039101C0A7
:1007200009023B00020100A0FA09040000010301D4
:100730000100092111010001224000070581030881
:10074000000109040100010300000009211101005A
:100750000122B600070582032000011201000200F9
:10076000000008534601000100010200010C034390
:10077000006F0072006E0065000000100366006FDD
:10078000006F007300740061006E00000004030934
:10079000040000000000003E5B4F5B3E003E6B4FDC
:1007A0006B3E001C3E7C3E1C00183C7E3C18001C2E
:1007B000577D571C001C5E7F5E1C0000183C180013
:1007C00000FFE7C3E7FF00001824180000FFE7DB85
:1007D000E7FF0030483A060E002629792926004016
:1007E0007F05050700407F05253F005A3CE73C5A3E
:1007F000007F3E1C1C0800081C1C3E7F0014227F4A
:100800002214005F5F005F5F0006097F017F000028
:100810006689956A0060606060600094A2FFA2949F
:100820000008047E04080010207E20100008082A1A
:100830001C0800081C2A0808001E10101010000CCC
:100840001E0C1E0C0030383E383000060E3E0E06E0
:100850000000000000000000005F00000000070032
:10086000070000147F147F1400242A7F2A1200231B
:100870001308646200364956205000000807030040
:1008800000001C224100000041221C00002A1C7FA5
:100890001C2A0008083E080800008070300000088C
:1008A000080808080000006060000020100804022A
:1008B000003E5149453E0000427F400000724949D8
:1008C0004946002141494D33001814127F1000277A
:1008D00045454539003C4A49493100412111090744
:1008E00000364949493600464949291E000000148E
:1008F00000000000403400000000081422410014F1
:1009000014141414000041221408000201590906AD
:10091000003E415D594E007C1211127C007F494916
:100920004936003E41414122007F4141413E007F26
:1009300049494941007F09090901003E414151737C
:10094000007F0808087F0000417F410000204041EF
:100950003F01007F08142241007F40404040007F5B
:10096000021C027F007F0408107F003E4141413E8F
:10097000007F09090906003E4151215E007F0919E7
:1009800029460026494949320003017F0103003FFF
:100990004040403F001F2040201F003F4038403F64
:1009A00000631408146300030478040300615949C8
:1009B0004D4300007F414141000204081020000027
:1009C0004141417F00040201020400404040404098
:1009D000000003070800002054547840007F28449A
:1009E000443800384444442800384444287F0038C0
:1009F000545454180000087E0902001824241C785E
:100A0000007F080404780000447D4000002040403E
:100A10003D00007F102844000000417F4000007C22
:100A200004780478007C080404780038444444388E
:100A3000007C1824241800182424187C007C080446
:100A400004080048545454240004043F4424003C47
:100A50004040207C001C2040201C003C4030403C9A
:100A6000004428102844004C9090907C004464542A
:100A70004C440000083641000000007700000000F0
:100A800041360800000201020402003C2623263CF5
:100A9000000000000000000000C0E0F0F8F81800BE
:100AA000C0F0FCFEFFFFFFFFFFFFFF7E0000000025
:100AB000F8042252E2424242E252222222428202BE
:100AC0000222220204F80000F804020282422242BA
:100AD00082020202824222122242820204F80000B2
:100AE000F8FCDEAE1EBEBEBE1EAEDEDEDEBE7EFE8E
:100AF000FEDEDEFEFCF80000F8FCFEFE7EBEDEBE82
:100B00007EFEFE000000000000808040402020109B
:100B100010080810102020404080808080C0C0E075
:100B2000E0F0F0F8F8F0F0E0E0C0C08080808040B5
:100B300040202010100808101020204040808080A5
:100B40008040C060A050B058A850B060A040C080A5
:100B50008000F8FCFEFFE000FFFFFFFFFFFF80FFCB
:100B6000FFFFFFFFFFFFFFFF1F0701000000000066
:100B70001F20444A47424242474A44404040404185
:100B800042444440201F00001F204041404040405C
:100B900040414041414F4848484F4141201F0000DB
:100BA0001F3F7B75787D7D7D78757B7F7F7F7F7E26
:100BB0007D7B7B7F3F1F00001F3F7F7E7F7F7F7F8E
:100BC0007F7E7F00000000000088885D5D3E3E7CE7
:100BD0007CF8F87C7C3E3E5D5D888888885555238E
:100BE0002347478F8F47472323555588888888D5C3
:100BF000D5E2E2C4C48888C4C4E2E2D5D588888836
:100C0000885DD56BB66DD6ADDA6DD66BB65DD58821
:100C10008800030F1F3F3F3F3F1F1F3F3F7F7F7FE6
:100C20003F3F1F3F7F7F7F7F7C7878381C0F000419
:100C3000F80000F804201F00001F20FCF80000F856
:100C4000043F1F00001F2004F80000F8FC201F00D4
:100C5000001F3FFCF80000F8FC3F1F00001F3FFE94
:100C60007EBEDEEEDEBE7EFEFCF8007E7E70777716
:100C700077707E7E3F1F0000000000000000000033
:100C8000000000000000000000000001010202045A
:100C9000040808040402020101000000000101022E
:100CA000020404080804040202010100000000011B
:100CB00001030307070F0F070703030101000000EB
:100CC000000101030205060D0A05060302010100E9
:100CD000000011241FBECFEFDAE0DEBFCDBF11E070
:100CE000A0E0B1E0ECE1F4E602C005900D92A23E76
:100CF000B107D9F727E0A2EEB1E001C01D92A233FF
:100D0000B207E1F70E94880D0C940C320C9400009D
:100D1000662309F45CC08D3C21F40E94A6298195CC
:100D200004C08E3C29F40E94A6298093EB04C5C020
:100D30008F3C21F40E94A629819504C0803D29F4AE
:100D40000E94A6298093EA04B8C0893D19F40E9444
:100D5000842905C08A3D31F40E94842981958093BD
:100D6000EC04ABC08B3D21F40E948429819504C022
:100D70008C3D29F40E9484298093ED049EC09FE25B
:100D8000980F983078F421E030E0A90102C0440FB8
:100D9000551F9A95E2F7CA019091E904892B809337
:100DA000E9048BC08D3D21F48091E30481600CC087
:100DB0008E3D21F48091E304826006C08F3D09F0EE
:100DC0007CC08091E30484608093E30476C08D3C12
:100DD00039F49091EB0497FF35C01092EB0459C0A1
:100DE0008E3C29F49091EB041916BCF32BC0909122
:100DF000EA048F3C29F497FF25C01092EA0449C009
:100E0000803D19F41916CCF31DC09091EC04893D76
:100E100029F41916BCF41092EC043BC08A3D19F475
:100E200097FF10C0F8CF8B3D39F49091ED0497FFF8
:100E300009C01092ED042DC08C3D21F49091ED0479
:100E40001916BCF39FE2980F983080F421E030E04F
:100E5000A90102C0440F551F9A95E2F7CA01809577
:100E60009091E90489238093E90413C08D3D21F416
:100E70008091E3048E7F0BC08E3D21F48091E304CA
:100E80008D7F05C08F3D29F48091E3048B7F809393
:100E9000E3048091EA04811106C08091EB04811182
:100EA00002C01092E1048091EC04811106C080918F
:100EB000ED04811102C01092E2040E94C629089537
:100EC0000E94E21F2FEF84E39CE02150804090407D
:100ED000E1F700C000009AE088E10FB6F894A89509
:100EE000809360000FBE90936000FFCF882321F0B5
:100EF0000E94651C0E946C1C0895882339F0909113
:100F00000E02892B80930E020E946C1C0895882388
:100F100099F19CEF980F913A30F4682F83E094E0B8
:100F20000E94C0180DC090E2980F983060F487704E
:100F300091E001C0990F8A95EAF7892F0E94651CFC
:100F40000E946C1C08959BE5980F933028F480E074
:100F500090E00E944219089598E5980F993128F47D
:100F600080E090E00E941D19089593E3980F93315B
:100F700018F460E00E9488060895CF93882309F44E
:100F800072C0C82F8CEF8C0F813AC0F580916E0132
:100F90008823E1F08091000487FF18C0EC2FE695CC
:100FA000E695E695F0E0ED5FFB4F8281282F30E07B
:100FB0004C2F477081E090E002C0880F991F4A953E
:100FC000E2F782239323892B61F412C0E5E0F4E079
:100FD0008BE094E02191C21721F08E179F07D1F783
:100FE00007C06C2F83E094E00E94C0180E946C1C24
:100FF0006C2F83E094E00E94E81810C080E28C0F10
:10100000883078F4C77081E090E001C0880FCA95FD
:10101000EAF790910E02892B80930E020E946C1CBD
:1010200022C0EBE5EC0FE33040F4F0E0EF57FE4F69
:10103000808190E00E94421916C0E8E5EC0FE9318A
:1010400050F4F0E0EE0FFF1FEC57FE4F80819181CE
:101050000E941D1908C083E38C0F833120F461E0E6
:101060008C2F0E948806CF910895A7E1B0E0EBE3B2
:10107000F8E00C947D304B8B5C8B6D8B7E8B8F8B73
:1010800061111092D30486E09E01235F3F4FD90186
:10109000E82F1D92EA95E9F795E0FE017396D901D4
:1010A00001900D929A95E1F79C894E895F897B8921
:1010B0007D879E876F87598B488BF901DE011796D4
:1010C00001900D928A95E1F7CE0107960E94AC1D22
:1010D00081113EC086E0FE013796DE011196019037
:1010E0000D928A95E1F7FF81E8856A857B85611518
:1010F000710531F0EF3F31F481E0FF3F19F403C097
:1011000081E001C080E080FD23C02091410430E0F7
:10111000C9010196877099274091720450E08417A5
:10112000950779F1F983EA837D836C8396E0929F3A
:10113000D001939FB00D1124AE5BBB4FFE013196E1
:1011400001900D929A95E1F7809341040E94C11C91
:1011500016E080917204909141048917F9F0189F6C
:10116000C00111248E5B9B4F0E94AC1D8823B1F0FF
:101170008091720490E001968770992780937204A1
:10118000E8CF0E94E21F1092410410927204EBE338
:10119000F4E086E0DF011D928A95E9F76796E3E0C7
:1011A0000C949930AAE0B0E0E8EDF8E00C947530CA
:1011B000FC018081918123813481232B31F09F3F79
:1011C00031F491E08F3F19F403C091E001C090E049
:1011D00090FD9AC47F0185E0DE01169601900D9284
:1011E0008A95E1F7F70122818E819F81222349F0C0
:1011F0000E94341D182F682F8E819F810E944E1FE0
:1012000003C00E941B1F182F6E817F81812F0E94B7
:101210000A238C01FC01E851FC47E730F10588F511
:10122000EA5AFF4F0C94E33106E221EE41EE6AE107
:101230007CE705C007E225EE45EE6BE17CE7C701E0
:101240000E947B191AC106E221EE40EE68E17CE7BC
:10125000F6CF07E225EE44EE69E17CE7F0CF06E247
:1012600021EE42EE6CE17CE7EACF07E225EE46EEA6
:101270006DE17CE7E4CF08E221E045EE6EE17CE73A
:10128000DECFF7018281882309F445C11092F30370
:10129000C8019057839708F0DBC084E090E00E947B
:1012A00018319093010480930004F801E150F04755
:1012B000E232F10520F4E35AFF4F0C94E3318091C0
:1012C00000048160ACC0809101048860B4C080914A
:1012D00000048260A4C08091000420C080910004BA
:1012E00088609DC0809101041EC0809101048260CD
:1012F000A2C080910004806192C08091000480624D
:101300008EC08091000480648AC00E94E21F809198
:101310000004806884C080910004886084607FC07D
:10132000809101048260816086C0809100048E7F7C
:1013300076C080910104877F7EC0809100048D7FFC
:101340006EC08091000420C080910004877F67C038
:10135000809101041EC0809101048D7F6CC080913A
:1013600000048F7E5CC0809100048F7D58C0809106
:1013700000048F7B54C00E94E21F809100048F778D
:101380004EC080910004877F8B7F49C0809101040B
:101390008D7F8E7F50C08091000482FB222720F930
:1013A00091E0922790FB82F990FB83F938C08091FD
:1013B0000104982F909591708E7F892B90FB81F975
:1013C0003AC08091000486FB222720F991E0922701
:1013D00090FB86F924C00E94E21F8091000487FBE5
:1013E000222720F991E0922790FB87F918C061E04D
:1013F00001C060E08EE090E00E941E311EC080912E
:10140000000484FB222720F991E0922790FB84F9C5
:1014100006C080910004982F909590FB80F98093EE
:1014200000040BC08091010483FB222720F991E086
:10143000922790FB83F980930104609100047091DE
:10144000010484E090E00E943C310E94E21F15C03C
:101450000631FCE71F0719F580910E028A7A91E0A8
:1014600009F490E09093E4018111C8C269E283E03D
:1014700094E00E94E8180E946C1C809173048770AD
:1014800009F442C3F7018281882309F43DC38091A6
:10149000010482FF39C382E00E94991F35C30330E3
:1014A000FCE71F0721F140F401158CE7180789F0CC
:1014B00001301C4711F13EC00B35ECE71E0739F136
:1014C0000C35FCE71F07D9F00A351C4799F581E078
:1014D0001FC00E94E21F8FEF94E3ECE08150904028
:1014E000E040E1F700C000000E941D18C6CF6FEF7A
:1014F0007FEF80E090E00E943C310E946007809185
:10150000010482FB882780F991E0892701C080E0EF
:101510000E94B61F0FC006312CE7120709F4E8C27B
:1015200080910E028272F801E052F847E531F10530
:1015300008F466C2F701828100811181882349F095
:10154000C8010E94341DD82E682FC8010E944E1F6A
:1015500004C0C8010E941B1FD82EB8018D2D0E9407
:101560000A230E94581A8C01982EF701D280A58078
:10157000A2949FE0A922809173048770B9F0DD20C6
:10158000A9F0812F807F803421F080E2800F8830A5
:1015900068F08091010482FF09C082E00E94991FD7
:1015A000809173048770CC24C3948111C12CB12E17
:1015B000B2948FE0B8228B2D90E08C30910508F02A
:1015C000EFC1FC01E158FF4F0C94E331812F807F84
:1015D0001F70882311F01295107FDD20B9F01123C0
:1015E00009F4CCC180E2800F883010F0911006C061
:1015F00090910E02192B10930E0205C09091D30406
:10160000192B1093D3040E946C1CB8C1802F0E9428
:101610008707112309F4C4C1005E083078F19920CE
:1016200069F110959091D30419231093D30429C024
:10163000812F807F1F70803211F01295107F9920CA
:1016400021F0F1E09F16F1F14CC08091010482FD80
:101650001BC0DD2069F0112339F090910E02192B87
:1016600010930E020E946C1C80E00E94BD0798C17E
:1016700080E00E948707112309F492C1812F0E9404
:10168000651C0E946C1C8CC1DD2069F080910F02EA
:10169000A11002C0812B1DC021E0812BA21219C014
:1016A0000E945B1C7DC1A11003C00E94551C31C06B
:1016B00081E0A81609F474C1812F0E9476070E9468
:1016C000551C6EC1DD2041F095E09A1508F468C103
:1016D000812F0E947D0764C1E4E0EA1508F460C12F
:1016E00018C0DD2049F0AA2099F3F701858180FF19
:1016F00045C18F708583ECCFAA2059F0093309F0DA
:101700004CC1FFEF27EE83E0F15020408040E1F72D
:1017100042C1812F0E94760743C1812F869586950D
:10172000837019F0813059F03BC1DD2019F0C801F8
:10173000937002C080E090E00E94421937C1DD2022
:1017400019F0C801937002C080E090E00E941D195A
:101750002DC16D2D802F0E94880628C1812F837096
:1017600009F041C0D11020C1302F32953695377025
:10177000330F330F802F8F7090E0032E02C0880F3D
:10178000991F0A94E2F704FF0BC04FE050E002C03B
:10179000440F551F3A95E2F79A012095309502C003
:1017A00020E030E0169516951370123099F068F429
:1017B0004091C9045091CA04113029F0822B932B17
:1017C0008423952304C0842B952B822B932B0E947A
:1017D000DD1FEAC0822B932B2091C9043091CA04EB
:1017E00082279327F4CFDD2019F0812F817001C06B
:1017F0008695882309F4D8C0302F329536953770F6
:10180000330F330F802F8F7090E0032E02C0880FAC
:10181000991F0A94E2F704FF0BC04FE050E002C0AA
:10182000440F551F3A95E2F79A012095309502C072
:1018300020E030E0169516951370123079F0B8F468
:1018400040910C0250910D02113029F0822B932B04
:10185000842395230EC0842B952B09C0822B932BB8
:1018600020910C0230910D028227932702C0822B17
:10187000932B0E94821F98C01F70DD2039F0812FAA
:101880000E94CD1F802F0E947D078EC0802F0E9456
:101890007607812F0E94871F87C0802F92EF9916AD
:1018A00099F1991538F0E0EF9E1659F0F1EF9F1677
:1018B00031F160C023EF921671F194EF9916D9F0CF
:1018C00059C0DD2099F0E4E0EA1508F469C01F7101
:1018D00081E090E002C0880F991F1A95E2F72091ED
:1018E0000C0230910D028227932722C0F5E0FA15F1
:1018F00008F456C0ECCF8091010482FD1CC0DD20AD
:1019000029F0812F8F7129C0DD20D9F3812F8F71AC
:101910000E94871F45C0DD2049F01F7181E090E0E3
:1019200002C0880F991F1A95E2F702C080E090E08C
:101930000E94821F35C0DD2099F01F71812F0E9407
:10194000CD1F8091010482FF07C028E0129FC001D3
:101950001124836080937304812F0E94CD1F20C0C7
:1019600081E00E94991F81E08A15D0F482E00E94F4
:10197000991F16C0DD2021F0AA2019F2802F75CE04
:10198000AA2021F2893349F49FEFE7EEF3E091506A
:10199000E040F040E1F700C00000802F0E94870780
:1019A00088EF8B0D843010F40E946719CC20A9F0C9
:1019B0008091730480FD11C0F70112828595859591
:1019C00085950E94CD1FC7010E94D20880917304A3
:1019D0008595859585950E94871F85E0F701DE0135
:1019E000119601900D928A95E1F709811A81C8013B
:1019F0000E941B1FB8010E940A2386C065E337CDF1
:101A0000E557FF4F0C94E3318091E60380FF17C048
:101A10008E7F8093E6036091E6037091E7038091E7
:101A2000E8039091E9030E94E3250E94312580910B
:101A3000F60481608093F6040E9453251ECD8160D8
:101A40008093E60361E086954BC04FE659E269E773
:101A500079E22CC049E759E26FE679E227C04BE111
:101A600059E265E279E222C045E259E26BE179E2AE
:101A70001DC041E059E26EE079E218C04EE059E243
:101A800061E079E213C047EE58E264EF78E20EC0FD
:101A900044EF58E267EE78E209C046EF55E268E0AD
:101AA00076E204C048E056E266EF75E20E94511A01
:101AB000E4CC61E081E014C065E082E016C068E03B
:101AC00086E013C06EE089E010C064E18FE00DC0D5
:101AD00067E185E10AC061E288E107C061E082E276
:101AE0000E942F29CACC69E284E20E943D1AC5CC2B
:101AF0008091E401811106C069E283E094E00E94D4
:101B0000C018B9CC65E3F9CF2A96EBE00C9491307C
:101B1000A2E1B0E0EEE8FDE00C946E3085B780689D
:101B200085BF85B7806885BF84B7877F84BF0FB6C0
:101B3000F894A8958091600088618093600010926D
:101B400060000FBE90E080E80FB6F89480936100CB
:101B5000909361000FBE81E190E29093E301809346
:101B6000E2010E941A160E948D168091E2008460A4
:101B70008093E200789480911D058823A1F0109154
:101B8000E9001F709091EC00892F817090FD80E832
:101B9000182B1092E9008091E80083FD0E94E82A4A
:101BA0001F701093E90082E084BD93E095BD9AEF29
:101BB00097BD80936E001092E5011092E60110929D
:101BC000E7011092E8010E94332280930401809182
:101BD0000401882321F0109214018BE103C08BE1F2
:101BE00080931401809315010E94332281110E9479
:101BF000F42E8091040180910401811102C094E0CF
:101C000001C090E09093F20184E0891B8093F10180
:101C10000FE611E0E3E7EE2EE1E0FE2ED8018D9114
:101C20008D018F3F11F00E94B022E016F106B1F74E
:101C300003E711E0F80181918F018F3F11F00E94BD
:101C4000B022F1E009371F07A9F788E0E8EFF1E0DB
:101C5000DF01282F1D922A95E9F7E9EEF1E0DF0177
:101C60001D928A95E9F780E090E00E941831873E46
:101C70009E4F11F00E94F61B82E090E00E940A3114
:101C80008093000284E090E00E9418319093010458
:101C9000809300040E943023EFE3FCE93197F1F7D1
:101CA00000C000000E9430230E943322811102C034
:101CB000E4E001C0E0E0F0E0E850FE4F808181FF09
:101CC00008C06FEF7FEF80E090E00E943C310E94FF
:101CD0001D1883E090E00E940A3190E00E94DD1F11
:101CE00083E08093300280E2809327050E94AA2D32
:101CF0006DE070E087E691E00E94AA2A892B09F046
:101D000043C08091300263E070E081FD3AC084E618
:101D100091E00E94AA2A892BB9F56DE070E084E574
:101D200091E00E94AA2A892B79F50E947F18DC0194
:101D3000CB01805D9A48AF4FBF4F8093EB039093E8
:101D4000EC03A093ED03B093EE03EAE2F5E080E04C
:101D500092E0DF019C011D9221503040E1F7F093A9
:101D60003107E09330078FEF9FEF90932905809321
:101D7000280581E08093F0038093EF0310923102F5
:101D800003C081E691E0C5CF8091F30181113BC092
:101D900080E090E00E941831873E9E4F21F00E9423
:101DA000F61B0E941A2688E090E00E941231609390
:101DB000E6037093E7038093E8039093E90380912F
:101DC000F60483608093F6046E7F71F40E941A26F5
:101DD00088E090E00E9412316093E6037093E7037D
:101DE0008093E8039093E9030E94C9250E9431255E
:101DF0008091E60380FF04C060E086950E942F2951
:101E000081E08093F3010E943322811102C00E947D
:101E1000F72E85E091E09093F8038093F703442434
:101E20004394512C69E0262E62E0362E80911D05E8
:101E3000853009F069C0FF24F39400E112E180913C
:101E40001D05853009F04BC080911D05843009F4D3
:101E500035C00E9431258091F501811109C0F092B1
:101E6000F5018091E60381708093F4010E94BA2508
:101E70000E94FD191092FB0388E190E0A0E40FB6E8
:101E8000F894A895809360000FBEA093600083B77C
:101E9000817F846083BF83B7816083BF7894889596
:101EA00083B78E7F83BF0FB6F894A89580916000AA
:101EB000886180936000109260000FBE80911C05C5
:101EC000882309F4BCCF0E943023E8EFF1E0819130
:101ED000811125C4B2E0E030FB07C9F7B0CF0E9402
:101EE000E21F0E9467191092F5018091F401882386
:101EF00049F08091E60381608093E60360E0869577
:101F00000E942F290E9438250E94302341E0E42EB0
:101F100042E0F42E58EFC52E51E0D52ED601F70140
:101F200091918D9189272E163F0619F08823C1F3D0
:101F300022C0811120C00E948B188C018091F60173
:101F40009091F7010817190709F4FFC38FEF8F83EA
:101F5000888719860E948B188160782F9B878A87D3
:101F60004F81588569858B850E9435081093F7014C
:101F70000093F601EAC30E943322882E10E0F60196
:101F800091906F01D701AC90A92411F100E0BB241E
:101F9000B3948A2D8B21B1F08820A1F00C871D8786
:101FA00091E0892D8B2109F490E09E870E948B1887
:101FB0008160782F988B8F874C855D856E858889A9
:101FC0000E9435080F5FBB0C063019F7F7019082AD
:101FD0001F5FFFEFEF1AFF0A183089F60E947F1883
:101FE000DD24D3940E9433228091F504882309F4E0
:101FF000C6C08091F404E091E603E695E81BE09307
:10200000F004823059F4F0E0EB57FE4FE4910E2FCC
:1020100010E03AEEE32E36E2F32E62C0863059F439
:10202000F0E0EE57FE4FE4910E2F10E02AEDE22E85
:1020300026E2F22E55C0893061F4E695F0E0E158D1
:10204000FE4FE4910E2F10E099E1E92E98E2F92E6F
:1020500047C08F3061F4E695F0E0E458FE4FE4911C
:102060000E2F10E087E8E82E87E2F82E39C0853180
:1020700059F4F0E0E758FE4FE4910E2F10E0BEEF68
:10208000EB2EB6E2FB2E2CC0823249F4E7E7F1E0FA
:1020900005911491ACE9EA2EA5E1FA2E21C0833214
:1020A00091F08432B9F48E2F63E00E94B531E92FAC
:1020B000F0E0EC58FE4FE4910E2F10E0F9E8EF2E1F
:1020C000F4E1FF2E0DC004EF11E0EAE5EE2EE5E1AC
:1020D000FE2E06C000ED17E070E3E72E75E2F72E46
:1020E0008091F104882361F01092F1040E9425236D
:1020F0009093EF048093EE041092F3041092F20494
:102100000E942523E091EE04F091EF049C012E1B28
:102110003F0B2F3F3F4798F520910B022223B1F050
:1021200010920B022091090230910A02821B930B3C
:102130008F3F9F4758F4205D3A4830930A0220931E
:1021400009028091F60488608093F604A090F2045E
:10215000B090F3040E0F1F1F1093EF040093EE04D2
:102160008EEE94E0F70109958091F2049091F304CA
:10217000892B29F4AB2819F081E080930B02809120
:10218000F003882309F4CCC180913202909133028C
:102190000E947018C29708F4BCC00E948B189093DC
:1021A0003302809332028AE295E090933107809364
:1021B00030078FE891E00E949C2A89E891E00E9414
:1021C0009C2A8FEE91E00E949C2A80910C029091B3
:1021D0000D020097A1F084FF03C08FED91E011C0C4
:1021E00081FF03C08FEC91E00CC082FF03C08FEB36
:1021F00091E007C083FF03C08FEA91E002C08FE93E
:1022000091E00E949C2A8FEE91E00E949C2A1091FE
:102210000F0280910E02182B012F087814740023EE
:1022200049F088E192E00E949C2A112361F083E149
:1022300092E00CC085E192E00E949C2A112359F0A3
:102240008FE092E003C081E192E007C00E949C2AE7
:102250001123A9F005C08DE092E00E949C2A0FC0D6
:102260008AE092E00E949C2A011119C081E092E06C
:102270000E949C2A112381F08DEF91E016C087E027
:1022800092E00E949C2A002389F384E092E00E945D
:102290009C2A8FEF91E07CC28BEF91E079C284E0C1
:1022A00092E00E949C2A8FEF91E00E949C2A88EF86
:1022B00091E00E949C2A10910F0280910E02182B2F
:1022C000012F01711272002309F441C28EE392E0E2
:1022D0000E949C2A112309F443C289E392E00E94E0
:1022E0009C2A112309F443C280E392E00E949C2AB5
:1022F000011153C287E292E00E949C2A112309F443
:1023000044C283E292E00E949C2A8EE192E00E9405
:102310009C2A8091280590912905892B31F4809180
:10232000EF03882309F4FCC0E4C08091F003882304
:10233000B1F3809131028111F2CF0E94171A2091DE
:102340002805309129052115310549F380E0082F32
:1023500010E07201082E02C0EE0CFF1C0A94E2F796
:10236000A70142235323452B11F48F5FF0CF9091A7
:102370003002980165E0220F331F6A95E1F790FF64
:1023800013C055E0369527955A95E1F7220F220F95
:10239000220F20930F0110921201295F2093100148
:1023A00083E08093130111C08295880F807680931B
:1023B0000F01220F232F221F330B3195209312017F
:1023C000815E809310011092130124E630E047E013
:1023D00050E06DE071E088E70E94522E892B09F0F1
:1023E0009ECF8091300280FF64C080E2E0E1F2E0A5
:1023F000DF011D928A95E9F7A80135E0440F551FCA
:102400003A95E1F7EDE7F1E0FA8BE98B09E711E0A6
:10241000A989BA898D91BA8BA98BF80191918F0105
:10242000BA01690F711D665D7A4F90E0805F9D4F24
:10243000FC0127E0922E9F01281B390B742C01C050
:10244000770C2A95EAF75B01812CD501CD905D01CF
:10245000C720292D28192770622E022E000C330B5D
:10246000BC2D01C0BB0F6A94EAF76B2E3195219504
:1024700031092770332701C0C6942A95EAF76C28E2
:10248000C0806C286082839428E08212DECF9A9408
:1024900031963FEF9312CFCF89899A898158914025
:1024A00009F0B6CF04E610E020E230E040E152E06F
:1024B0000CC0A80185E0440F551F8A95E1F7465DE1
:1024C0005A4F04E610E020E230E060E488E70E9422
:1024D000732E892B09F023CFE094F0948091280586
:1024E00090912905E822F922F0922905E092280529
:1024F00016CF0E947F180091EB031091EC032091FE
:10250000ED033091EE03DC01CB01801B910BA20B9C
:10251000B30B8F3F9F4FAF4FBF4710F40E94FD1981
:10252000D1100E94171A86E0E8EEF4E0DE01119661
:1025300001900D928A95E1F71092EA041092EB0453
:102540001092EC041092ED048B81811104C08C81F7
:10255000882309F453C08091E6049091E7040E9417
:1025600070189C019091E104992309F422C125314E
:10257000310508F443C09F3F19F09F5F9093E10439
:102580001B81112361F00E94A629111614F09FEF00
:1025900001C091E0899F802D11248093EA041C8161
:1025A000112361F00E94A629111614F09FEF01C0BB
:1025B00091E0899F802D11248093EB043091EA04EF
:1025C0003323E1F02091EB042223C1F045EB3403E7
:1025D000C0011124992319F09093EA0403C081E00B
:1025E0008093EA0435EB2303C0011124992319F0E9
:1025F0009093EB0403C081E08093EB048D81811103
:1026000004C08E81882309F453C08091E404909122
:10261000E5040E9470189C019091E204992309F44A
:10262000CDC02135310508F443C09F3F19F09F5FAD
:102630009093E2041D81112361F00E9484291116F8
:1026400014F09FEF01C091E0899F802D11248093A9
:10265000EC041E81112361F00E948429111614F0EC
:102660009FEF01C091E0899F802D11248093ED049C
:102670003091EC043323E1F02091ED042223C1F0EA
:1026800045EB3403C0011124992319F09093EC0415
:1026900003C081E08093EC0435EB2303C0011124D7
:1026A000992319F09093ED0403C081E08093ED0429
:1026B00046E050E0BE016F5F7F4F88EE94E00E94DD
:1026C000F631892BA9F48091EA0481110FC0809121
:1026D000EB0481110BC08091EC04811107C081E0F3
:1026E0009091ED04911103C080E001C081E080FD74
:1026F0000E94C62986E0FE013196A8EEB4E0019062
:102700000D928A95E1F70E9467199091340289171A
:1027100009F48CCB809334020E947F1883CB09BDCF
:1027200019BD09B400FEFDCF8091D8008F7D809344
:10273000D8008091E00082608093E0008091E0000A
:1027400081FDFCCF0E94E21F7ACBD12C4BCC8BE3D6
:1027500092E00E949C2A112331F085E392E0BFCDE4
:1027600087E392E002C083E392E00E949C2A8DE21C
:1027700092E00E949C2A002309F4BCCD8AE292E0F8
:102780000E949C2A85E292E00FC081E292E00CC098
:102790000E949C2A85EF91E08CCD8AE292E00E9413
:1027A0009C2A85E292E0AFCD0E949C2A8BE192E0C8
:1027B000AECD2B30310508F0E0CE20CF2B303105E7
:1027C00008F035CF75CF2091E4003091E50095E613
:1027D0004091EC00842F817040FF23C08091E8007D
:1027E00080FD1DC080911D05882399F0853099F0EA
:1027F0008091EB0085FD11C04091E4005091E5000F
:102800002417350729F3915011F09A01E1CF84E0A4
:10281000089582E0089583E0089581E0089580E0BE
:1028200008954091E80042FFDDCF08958091FA04B9
:1028300008950F931F93CF93DF938B01EA0190913B
:102840001D05943079F58F708093E9008FEF90919A
:10285000E800815095FD06C095ED9A95F1F70000CE
:102860008111F5CF8091E80085FF1CC00E94E31321
:10287000882361F08091E8008E778093E80012C091
:10288000F80181918F018093F1002197209791F3B6
:102890008091E80085FDF4CF8091E8008E778093E9
:1028A000E800E4CFDF91CF911F910F91089543E0AD
:1028B00050E0BC0182E00E941914089546E050E007
:1028C000BC0182E00E9419140895CF93DF93EC01BC
:1028D00080916E01811105C048E050E0BE0181E0A9
:1028E0000BC08091000487FF03C040E282E002C079
:1028F00048E081E050E0BE010E94191480E2FE0130
:10290000ABEFB4E001900D928A95E1F7DF91CF91A2
:102910000895A0E0B0E0EFE8F4E10C947130FC0120
:102920006280548081E08483E1E4F2E07490E0EC22
:10293000F2E0E491C091E903C695C158D0E0CC0F14
:10294000DD1FED2EFF24812C75E0972EAA24AA947A
:10295000B12CE719CE2ED12C80911801881608F0E1
:10296000A2C0082D10E022E0261568F0909EF0012C
:10297000919EF00D1124E852FD4F8091E703808372
:102980008091E803818351100AC0909EF001919ECE
:10299000F00D1124E852FD4F1382128260C0909E08
:1029A000C001919E900D1124EC01C852DD4F8B8126
:1029B0008823F9F081508B832FEF829FC00111246F
:1029C0006C8170E00E945A30FB01FF27EF5BFD4FE6
:1029D0008491E82FE7192FEFE29FC0011124B6017F
:1029E0000E945A308091E903689FB00111247A83D4
:1029F00036C00E94F130B5010E94CF318E159F057F
:102A000074F582E0861588F40E94F130B5010E94C9
:102A1000CF3188830E94F1302091E8032695622F00
:102A200070E00E94CF31280F2983909EF001919E83
:102A3000F00D1124E852FD4F12828091E903843198
:102A400020F0893C18F088EC01C084E1909EF001F0
:102A5000919EF00D1124E852FD4F84838383809171
:102A600016019801280F311DC901880F991F280FE1
:102A7000391F2A5C3D4F909EF001919EF00D11246C
:102A8000E852FD4F4281493708F048E7909EF00137
:102A9000919EF00D1124E852FD4F618180810E94CA
:102AA0003326839459CF0E945325CDB7DEB7EFE08C
:102AB0000C948D300F931F93CF93DF93EC0100E0C4
:102AC00010E080911801282F30E0021713073CF521
:102AD000909116019801290F311DA901440F551F2E
:102AE000240F351F2A5C3D4F869590E04C810817D6
:102AF00019071CF4442349F002C0411106C040915B
:102B0000E903493718F048E701C040E06091E80365
:102B10008091E7030E9433260F5F1F4FD2CF0E94A0
:102B200053258C8190E00196817099278C83DF91E9
:102B3000CF911F910F910895A3E0B0E0E2EAF5E193
:102B40000C947C308C018091350281110AC09E0169
:102B50002F5F3F4F48E76FEF0E9433268A818093B3
:102B60003502F8018481813051F028F0823061F41F
:102B7000409135020AC08091350240E007C0609163
:102B8000350240E080E003C040E080E060E00E9469
:102B90009F25F801848190E0019663E070E00E9437
:102BA000CF3184832396E4E00C9498301F920F92E7
:102BB0000FB60F9211242F933F934F935F936F9310
:102BC0007F938F939F93AF93BF93CF93DF93EF93B5
:102BD000FF93C091E900CF708091EC00D82FD170A5
:102BE00080FDD0E81092E9008091F000877F80930B
:102BF000F00078940E94E82A1092E9008091F00099
:102C000088608093F000CD2BCF70C093E900FF91D6
:102C1000EF91DF91CF91BF91AF919F918F917F9174
:102C20006F915F914F913F912F910F900FBE0F9039
:102C30001F901895E8EDF0E080818E7F80831092E0
:102C4000E2001092DA001092E100A0EEB0E08C9168
:102C500081608C9380818F77808319BCA7EDB0E071
:102C60008C918E7F8C9380818F7E80831092020462
:102C7000089580911F0587FF11C08091E80082FDB3
:102C800005C080911D058111F8CF11C08091E80029
:102C90008B770BC080911D05882349F08091E80057
:102CA00080FFF8CF8091E8008E778093E800089548
:102CB000982F973068F59093E900981739F0709144
:102CC000EC002091ED005091F00003C0242F762FEE
:102CD00050E021FD02C09F5FECCF3091EB003E7FC2
:102CE0003093EB003091ED003D7F3093ED0030915B
:102CF000EB0031603093EB007093EC002093ED001B
:102D00005093F0002091EE0027FDE5CF80E008957C
:102D10008F708093E90081E00895A0E0B0E0E3E9DE
:102D2000F6E10C947830C8EDD0E088818F7E8883FE
:102D3000E7EDF0E080818160808384E082BF81E004
:102D40008093020488818E7F888302EE10E0F80170
:102D500010821092DA0081EEC82ED12CF60110827A
:102D600088818F77888388818068888388818F7D38
:102D7000888319BC10921D0510921E0510921C0527
:102D800010921B0590EEE92EF12CF70180818B7FCC
:102D9000808388818160888342E060E080E00E94D7
:102DA0005816F60180818E7F8083F80180818160D2
:102DB0008083808188608083F70180818E7F80831B
:102DC000888180618883CDB7DEB7E8E00C949430C9
:102DD0001F920F920FB60F9211242F933F934F9390
:102DE0005F936F937F938F939F93AF93BF93EF9373
:102DF000FF938091E10082FF09C08091E20082FF91
:102E000005C08091E1008B7F8093E1008091DA0022
:102E100080FF2AC08091D80080FF26C08091DA0010
:102E20008E7F8093DA008091D90080FF18C080E106
:102E300089BD82E189BD09B400FEFDCF81E08093A8
:102E40001D058091020481110FC00E941A160E9474
:102E50008D168091E20084608093E20005C019BC69
:102E600010921D05109202048091E10080FF17C0AE
:102E70008091E20080FF13C08091E2008E7F8093FA
:102E8000E2008091E20080618093E2008091D800AE
:102E900080628093D80019BC85E080931D058091E5
:102EA000E10084FF30C08091E20084FF2CC080E10B
:102EB00089BD82E189BD09B400FEFDCF8091D800B3
:102EC0008F7D8093D8008091E1008F7E8093E10018
:102ED0008091E2008F7E8093E2008091E200816029
:102EE0008093E20080911E05882311F084E007C0E2
:102EF0008091E30087FD02C081E001C083E0809300
:102F00001D0580911D058091E10083FF27C0809100
:102F1000E20083FF23C08091E100877F8093E1007E
:102F200082E080931D0510921E058091E1008E7F46
:102F30008093E1008091E2008E7F8093E200809197
:102F4000E20080618093E20042E060E080E00E9465
:102F500058168091F00088608093F000FF91EF9107
:102F6000BF91AF919F918F917F916F915F914F91A1
:102F70003F912F910F900FBE0F901F9018952091A9
:102F80002505309126052617370748F0611571058C
:102F900039F42091E8002E772093E80001C0B901B0
:102FA000FC0120E06115710579F180911D058823F0
:102FB000F1F18530F1F18091E80083FD3CC0809112
:102FC000E80082FD2EC08091E80080FFEBCF2091C9
:102FD000F3008091F20090E0922B6115710551F0A1
:102FE0008830910538F421912093F10061507109E6
:102FF0000196F3CF21E0089709F020E08091E800E6
:103000008E778093E800CECF2111CFCF0AC0809178
:103010001D05882361F0853061F08091E80083FD13
:103020000AC08091E80082FFF2CF80E0089582E03C
:10303000089583E0089581E0089587E797E79093E6
:103040000108809300089AE088E10FB6F894A895EB
:10305000809360000FBE90936000FFCF78941F9222
:103060000F920FB60F9211248F939F93AF93BF933C
:103070008091FC039091FD03A091FE03B091FF03AA
:103080000196A11DB11D8093FC039093FD03A093B5
:10309000FE03B093FF03BF91AF919F918F910F906B
:1030A0000FBE0F901F901895CF92DF92EF92FF9274
:1030B0002FB7F894C090FC03D090FD03E090FE037E
:1030C000F090FF032FBFA7019601261B370B480B7B
:1030D000590BCA01B901FF90EF90DF90CF9008958E
:1030E0009C014FB7F8948091FC039091FD03A0914F
:1030F000FE03B091FF034FBF821B930B08952FB7C0
:10310000F8946091FC037091FD038091FE0390910F
:10311000FF032FBF08952FB7F8948091FC0390917F
:10312000FD03A091FE03B091FF032FBF08951F92EE
:103130000F920FB60F9211248F939F93AF93BF936B
:103140008091FB03811113C08091FC039091FD03DA
:10315000A091FE03B091FF034196A11DB11D809384
:10316000FC039093FD03A093FE03B093FF03BF9174
:10317000AF919F918F910F900FBE0F901F90189558
:1031800020916E012223C9F02091000427FF15C071
:10319000262F2695269526952E31C8F4FC01E20FA0
:1031A000F11D677081E090E001C0880F6A95EAF731
:1031B00080959281892382830895FC01069622815D
:1031C000621301C012823196E817F907C1F708951A
:1031D00020916E012223C1F02091000427FF14C02A
:1031E000262F2695269526952E3130F5FC01E20FE7
:1031F000F11D677081E090E001C0880F6A95EAF7E1
:103200009281892B82830895FC0132962FEF30E062
:103210004191641789F02F3F19F4411101C0232F08
:103220003F5F3630A9F72F3F39F0FC01E20FF11D67
:1032300027FDFA95628308950895A3E0B0E0E3E2E4
:10324000F9E10C947E302091F9033091FA032817AC
:103250003907A1F09093FA038093F903E091F70303
:10326000F091F803309751F024E029839B838A83FF
:103270000680F781E02DCE01019609952396E2E0C4
:103280000C949A30A3E0B0E0E8E4F9E10C947E30CD
:103290002091F5033091F60328173907A1F0909398
:1032A000F6038093F503E091F703F091F80330976C
:1032B00051F023E029839B838A830680F781E02DE8
:1032C000CE01019609952396E2E00C949A300E9473
:1032D0003322811103C08091F4030895E091F70334
:1032E000F091F803309729F00190F081E02D0995D5
:1032F000089580E00895EF92FF920F93CF93DF93AC
:10330000C42FD22FFC0182818823B1F04093F303B4
:103310000E948B189093F2038093F10380E28C0F4C
:10332000883008F064C0C77081E001C0880FCA957A
:10333000EAF70E947D075BC08091F30348134BC0FE
:103340008091F1039091F2030E947018883C9105DE
:1033500008F041C0CD17C9F080E28C0F883040F4EE
:10336000C77081E001C0880FCA95EAF70E9476070E
:1033700080E28D0F883048F481E09D2F977001C066
:10338000880F9A95EAF70E947D07093319F0E12C1E
:10339000F12C03C080E5E82EF12C802F0E94BD07A0
:1033A000E114F10451F08FE99FE00197F1F700C0BB
:1033B000000091E0E91AF108F3CF802F0E948707FF
:1033C00080E28D0F883098F4D77081E001C0880FBB
:1033D000DA95EAF70AC080E28C0F883040F4C770B3
:1033E00081E001C0880FCA95EAF70E947607DF9155
:1033F000CF910F91FF90EF9008958091F0039091FD
:10340000EF03882389F0992369F062E070E083E498
:1034100093E00E94AA2A892B19F08091EF03089566
:103420001092EF039091EF0381E089270895809136
:10343000F0038823F9F00E947F18DC01CB01805D46
:103440009A48AF4FBF4F8093EB039093EC03A09348
:10345000ED03B093EE038091EF0381110BC062E0A6
:1034600070E081E493E00E94AA2A892B19F481E09C
:103470008093EF038091EF0308959091E60390FF0E
:1034800004C09695981748F003C0811106C090E0DB
:10349000961718F40E947929089561E00E942F2957
:1034A0000895882311F0FA0101C0FB0109950895E0
:1034B000CF93DF938238910569F1B0F481339105A0
:1034C00009F477C048F48932910509F469C08A3259
:1034D000910509F473C092C08533910509F45BC06E
:1034E00089339105B9F08AC0833E910591F138F492
:1034F000803E9105D1F0823E910531F17FC0863E3C
:103500009105D9F1873E9105E9F1843E910509F0D5
:1035100075C028C02091000420FD5BC021FD59C06A
:103520002091010423FD61C069C08091000480FDE9
:103530004AC08091010480FF4CC08091000484FD4A
:1035400050C183EE90E04FC18091000482FF3EC0E5
:10355000F4CF8091000482FD39C08091010480FD88
:1035600038C0EBCF8091010481FF39C08091000405
:1035700084FD37C187EE90E036C18091000483FF5F
:103580002BC0F4CF8091000483FD26C080910104FC
:1035900081FD25C0EBCF8091000485FD26C022C0AF
:1035A0008091000485FD1EC08091010483FF1DC031
:1035B0000AC08091000486FD1BC01DC080910004DC
:1035C00086FD19C015C089E390E00DC182EE90E040
:1035D0000AC180EE90E007C186EE90E004C184EE5F
:1035E00090E001C185E390E0FEC089E290E0FBC07D
:1035F0008AE290E0F8C081E390E0F5C0EC0181152B
:1036000030E5930708F053C0811560E4960720F079
:10361000CE019F70906AE7C0803E910588F58D3C91
:10362000910518F0CE019065DEC0883A9105C0F48E
:10363000853A910550F08C2F855AC82FD0E0CF578E
:10364000DE4F888190E09064CEC08130910509F40E
:10365000C5C008F4C6C0049708F4C3C0CE01C3C0F7
:10366000813C910508F0BDC08C2F885AC82FD0E04E
:10367000CC0FDD1FCC57DE4F888199819464B3C095
:103680008115904258F08D2F8F710E94C722282FEC
:103690002F71CE0199279062922BA5C0C11581E0B0
:1036A000D807E0F6C83ED10508F09BC0D7CFC0369A
:1036B00092E5D90708F053C0C03422E5D207B8F02C
:1036C0008C2F8F718695869570E2879FA0011124BB
:1036D0008C2F837021E030E0B90102C0660F771FA4
:1036E0008A95E2F7CB019C68842B952B7CC0C03275
:1036F00032E5D30740F08C2F8F7190E0982F882708
:10370000816F906A70C0C11562E5D607B0F08C2F4A
:103710008695869520E2829FA00111248C2F8370CC
:1037200021E030E0B90102C0660F771F8A95E2F709
:10373000CB01842B952B9D6856C08C2F8F710E94D6
:10374000C72295E0D695C7959A95E1F7CF70D0E05E
:10375000DC2FCC27D0699E01282BC90144C0C03A78
:1037600072E5D70708F58C2F8F71C03892E5D9071D
:10377000A8F48695869570E2879F900111248C2F7E
:10378000837041E050E0BA0102C0660F771F8A954E
:10379000E2F7CB019A68822B932B25C090E0982FFB
:1037A0008827846F906A1FC0C03C22E5D20750F47E
:1037B0008C2F8F710E94C7228F7190E0982F8827DD
:1037C000906211C0C03E32E5D30758F4CE018F712C
:1037D0009927982F8827806F906A05C081E090E034
:1037E00002C080E090E0DF91CF91089567EE7EEF18
:1037F00080E090E00E943C3160E082E090E00E9436
:103800001E3160E083E090E00E941E311092CA04F5
:103810001092C90460E074E184E090E00E943C31C1
:1038200060E086E090E00E941E316FEF87E090E05C
:103830000E941E3140E050E0BA0188E090E00E9412
:10384000303160E08DE090E00E941E3140E050E0B9
:10385000BA0188E190E00E94303160E087E190E0B9
:103860000E941E3140E050E0BA018CE190E00E94DD
:10387000303160E070E080E290E00E943C3140E056
:1038800050E0BA0188E190E00E94303140E050E021
:10389000BA018FE090E00E94303140E050E0BA0180
:1038A00083E190E00E943031089580910F028111F0
:1038B00010920F0208959091010492FF05C090911B
:1038C0000F02981380930F020895809590910E0235
:1038D000892380930E02089590910E028091D30463
:1038E000982B9093030480910F028823D9F0892BA1
:1038F0008093030480916E01882331F0809100044D
:1039000087FF02C08EE101C086E0E5E0F4E090E0D0
:10391000815028F021912223D9F39F5FF9CF911193
:103920000E94551C40E250E064E774E083E094E0BC
:103930000E94F631892B21F180E2E3E0F4E0A4E774
:10394000B4E001900D928A95E1F7E091F703F091D0
:10395000F8033097A9F080916E01882359F0809187
:10396000000487FF07C0809103048093040486E06D
:10397000809303040280F381E02D83E094E00995B5
:1039800008958091720490914104891719F08F5F16
:103990008770FBCF08950F931F93CF93DF93809190
:1039A000400482958F7009F05AC080913D048823AD
:1039B00009F455C0809172041091410460913B0458
:1039C00070913C04C0913E04D0913F0491E06F3F60
:1039D00009F090E0292F06E0811709F440C02097F4
:1039E00021F07F3F21F030E003C031E001C0322FF1
:1039F00090E030FD31C0089FF001099FF00D1124C7
:103A0000DF01AE5BBB4F11963C911197371324C079
:103A10003C91361321C012963C91129731111CC073
:103A200013964D915C9114974C1B5D0B483C5105CE
:103A300098F4809140048F70806180934004E95B2A
:103A4000FB4F80818F70806180838BE394E00E94C4
:103A5000D2080E94C11C03C001968770BDCFDF91C0
:103A6000CF911F910F910895A0E0B0E0EAE3FDE14E
:103A70000C9477307C0100910C0210910D02809122
:103A8000C9049091CA04082B192BCFE0D0E0CC24B4
:103A9000C394D12CC6010C2E02C0880F991F0A9422
:103AA000E2F780239123892B21F4219798F7B12CF9
:103AB00009C0BC2EB7018C2F0E940A230E94581AFD
:103AC000019799F38B2DCDB7DEB7E9E00C949330D5
:103AD000CF93DF93EC010E94341DBE010E940A23A4
:103AE0000E94581ADF91CF910895CF93FC018081F5
:103AF000918123813481232B31F09F3F31F491E078
:103B00008F3F19F403C091E001C090E0C92FC1704C
:103B100090FD1CC0808191810E94681D92959F70CC
:103B2000963079F010F4925001C09A50923088F497
:103B3000803F71F018F4883E60F40AC0843F49F475
:103B400007C0883E28F0813F21F402C0C0E001C0D8
:103B5000C1E08C2FCF910895A1E1B0E0E2EBFDE14F
:103B60000C9475308C0185E0F801DE011D96019002
:103B70000D928A95E1F7F801E28090913B04609103
:103B80003C0440913E0450913F044115510531F0F1
:103B90006F3F31F481E09F3F19F403C081E001C021
:103BA00080E0F82FF1709F2E80FD03C1F801308175
:103BB0002181C380D4808BE3A82E84E0B82EF090BE
:103BC0003D04F601E41BF50BFF2009F4CBC0809106
:103BD0004004E83CF10508F096C0482F407F09F00A
:103BE00051C0621311C093130FC0FE2CE1100CC022
:103BF0008F70806180934004C5010E94D20880913B
:103C00004004F801858312C1C114D10431F02F3F63
:103C100031F481E03F3F19F403C081E001C080E04E
:103C200080FD03C081E08E2502C080E090E0F82F87
:103C3000F170FF2E80FF1CC08091720440914104FE
:103C400056E0841709F4D0C090E0589FF001599FC6
:103C5000F00D1124EE5BFB4F6181261306C06081DD
:103C6000631303C06281E61203C001968770E9CF37
:103C7000FE2CEE2009F4DAC080914004816080932C
:103C800040044DC062130AC0931308C0E11006C07F
:103C9000F8018583C8010E94D2086EC0C8010E9445
:103CA000751D882351F1EE2041F120914004822FAF
:103CB00082958F7090E0029774F080913B04909110
:103CC0003C0498878F831986DB86CA862C87CE01B1
:103CD00007960E94D20886E0F801ABE3B4E00190B9
:103CE0000D928A95E1F70E94CB1C0AC06217C9F0B9
:103CF000C8010E94751D81111EC0C8010E94D20812
:103D0000FF24F39493C0482F407F81F78BE394E026
:103D10000E94D20886E0F50111928A95E9F7F12C0C
:103D200085C09313E5CFE110E3CFF8018583C80187
:103D30000E94D20838C0EE2001F320914004822F67
:103D400082958F7090E0029734F280913B049091BD
:103D50003C049A8389831B82DD82CC822E83CE0130
:103D60000196B7CFE83CF105F0F4FE2CEE2029F2E5
:103D700062130BC0931309C086E0F801ABE3B4E013
:103D800001900D928A95E1F751C0C8010E94751DFE
:103D90008111A1CF80914004816080934004C801CB
:103DA0000E94D20843C086E0F50111928A95E9F796
:103DB0003DC0EE2009F4A1CFC8010E94751DF82E68
:103DC000882309F49ACF86E0F801ABE3B4E00190D0
:103DD0000D928A95E1F780913B0490913C040E94FA
:103DE000681D0E94CB1C22C03D872E878D859E8535
:103DF0000E94681D292F22952F70223028F49F7071
:103E000039F0811105C00BC0243028F49F7049F4AB
:103E1000805E883020F0C8010E94D2089F2CF92CC7
:103E200005C0F8019581907F99F7F9CF8F2D6196A4
:103E3000EBE00C949130983078F5863068F5E82FF7
:103E4000F0E086E0989FE00DF11D11249E2F977001
:103E500083E0F695E7958A95E1F7EE0FFF1FEE0FE9
:103E6000FF1FED5DFB4F40E050E080E0219130E02E
:103E7000092E02C0369527950A94E2F72170332760
:103E8000042E01C0220F0A94EAF7822B4F5F5F4F86
:103E90004430510559F7089580E00895983088F529
:103EA000863078F5E82FF0E086E0989FE00DF11D70
:103EB00011248E2F877051E001C0550F8A95EAF7C3
:103EC00083E0F695E7958A95E1F7EE0FFF1FEE0F79
:103ED000FF1FED5DFB4F20E030E070E04081CB0143
:103EE000022E02C0969587950A94E2F7817081951B
:103EF00084278523842781932F5F3F4F243031050A
:103F000069F7089590930D0280930C02089521E0C3
:103F100030E002C0220F331F8A95E2F720953095DA
:103F200080910C0290910D02822393230E94821FA4
:103F30000895209173048095822380937304982FB1
:103F4000977099F430E0482F082E000C550B241779
:103F5000350759F09091010492FF07C0859585952A
:103F600085950E94871F1092730408959091010413
:103F700092FB222720F9281779F080FB92F9909381
:103F80000104609100047091010484E090E00E94BB
:103F90003C3182E00E94991F089521E030E002C088
:103FA000220F331F8A95E2F780910C0290910D0247
:103FB000822B932B0E94821F08959093CA048093B2
:103FC000C904089510920E0280916E01882331F089
:103FD0008091000487FF02C08EE101C086E0E5E029
:103FE000F4E0DF011D928A95E9F780E090E00E94FD
:103FF000421980E090E00E941D191092D3040E94A3
:104000006C1CE8EEF4E086E0DF011D928A95E9F78A
:104010001092E1041092E2041092E3040E94C62977
:10402000089580E00895A0E0B0E0E9E1F0E20C94AA
:1040300076307C015B016A018091E0048A3018F0DF
:1040400001E010E002C00AE010E0C1E0D0E0B501FC
:10405000C701F6010995811115C021960C171D079E
:1040600094F0CC9F9001CD9F300D300D112480E055
:1040700090E045E34A95F1F7000001968217930717
:10408000C1F7E5CF81E0CDB7DEB7EAE00C9492301E
:10409000A0E0B0E0EEE4F0E20C9479307901C82FB2
:1040A000880FDD0B41155105A9F0FE0193E0EE0FDD
:1040B000FF1F9A95E1F7E75EFE4F8181928181565D
:1040C0009B4F208130E04217530708F49A01A90161
:1040D0000E940332CE010E94DF2FD82E8823D1F018
:1040E00001151105B9F083E0CC0FDD1F8A95E1F7CA
:1040F000FE01E75EFE4F438150E00417150708F408
:10410000A801C75EDE4F6C817D8161567B4FC70180
:104110000E9403328D2DCDB7DEB7E7E00C949530C9
:10412000A3E0B0E0E6E9F0E20C947C306091D404C6
:104130007091D5048091D6049091D7040E945418B0
:1041400041E0643671058105910508F440E0309145
:104150000E023983643671058105910520F42091A2
:10416000AD04231341E09091D3049A83411106C01A
:1041700041E02091AE04291301C040E090910F026C
:104180009B83411106C08091AF04891302C011E0E6
:1041900019C000E010E020E030E043E050E0BE0154
:1041A0006F5F7F4F86E00E944820182F882351F0D0
:1041B0000E947F186093D4047093D5048093D60432
:1041C0009093D704812F2396E4E00C949830A5E0D7
:1041D000B0E0EDEEF0E20C947A307B0101E010E00B
:1041E0009E012B5F3F4F40E050E060E070E080E0D8
:1041F0000E944820182F8823C1F16091BD0470915E
:10420000BE048091BF049091C0040E94541864368B
:1042100071058105910538F480EA94E00E94D12A65
:104220009D81891711F104E010E09E012F5F3F4F3F
:1042300040E050E060E070E081E00E944820182FEC
:1042400080EA94E00E94D12A91E02D81281390E029
:10425000192329F10E947F186093BD047093BE0456
:104260008093BF049093C0040CC08091A0049091EF
:10427000A104A091A204B091A30489839A83AB8383
:10428000BC83112361F089819A81AB81BC818093C9
:10429000B9049093BA04A093BB04B093BC0480917A
:1042A000B9049091BA04A091BB04B091BC04F70189
:1042B00080839183A283B383812F2596E6E00C94BB
:1042C0009630A0E0B0E0E7E6F1E20C947630C82F3B
:1042D0007B01D42F69015801FB01608171818281CA
:1042E00093810E945418643671058105910510F47C
:1042F000DD23A1F000E010E020E030E0A501B601F0
:104300008C2F0E944820C82F882349F00E947F18D4
:10431000F701608371838283938301C0C1E08C2F96
:10432000CDB7DEB7EAE00C949230A1E0B0E0EBE963
:10433000F1E20C947C308091EF0389832091B804E2
:1043400030E090E041E02817390709F440E001E04F
:1043500010E09E012F5F3F4F6CED74E088E00E94FB
:1043600061212196E4E00C949830A8E0B0E0EBEBFA
:10437000F1E20C947C3085E0E6EEF3E0DE0111968C
:1043800001900D928A95E1F78091F4049091F504E3
:10439000A091F6048E839F83A88741E088858111D0
:1043A00001C040E008E010E09E012F5F3F4F68ED44
:1043B00074E087E00E94612181111092F604289632
:1043C000E4E00C949830A1E0B0E0E9EEF1E20C9466
:1043D0007C300E946719898341E09091AC04981366
:1043E00001C040E001E010E09E012F5F3F4F6FEC05
:1043F00074E085E00E9461212196E4E00C949830FD
:104400000F931F9341E02091A8043091A90480915B
:104410000C0290910D022817390709F440E002E0E0
:1044200010E02CE032E06BEC74E083E00E9461214C
:104430008823B1F041E02091AA043091AB0480912F
:10444000C9049091CA042817390709F440E002E032
:1044500010E029EC34E065EC74E084E00E94612116
:104460001F910F91089580919E04811118C0809131
:10447000D80080618093D8008AE18A95F1F700C066
:104480008091D90080FD02C082E001C081E080936C
:104490009E04823021F40E941A1610921D0581E0BC
:1044A00090919E04913009F080E008950F931F933E
:1044B0000E943322882319F00E947F180EC00E94A8
:1044C0007F180091E5011091E6012091E7013091FC
:1044D000E801600F711F821F931F1F910F910895B4
:1044E000A4E0B0E0E6E7F2E20C947C306091C10415
:1044F0007091C2048091C3049091C4040E94541826
:10450000643671058105910528F10E945622DC016F
:10451000CB010296A11DB11D89839A83AB83BC8315
:1045200000E010E020E030E044E050E0BE016F5FCA
:104530007F4F82E00E944820182F882361F00E945C
:104540007F186093C1047093C2048093C304909356
:10455000C40401C011E0812F2496E4E00C9498304B
:10456000F894E82FE295EF70F0E031A1282F2F703A
:1045700081E090E001C0880F2A95EAF7982F909586
:10458000932391A392A1892B82A37894089590916B
:10459000000492FF0DC0282F2871283019F4877F5E
:1045A000846006C0282F2471243011F48B7F88602A
:1045B00093FF0DC0282F2871283119F4877E84615C
:1045C00006C0282F2471243111F48B7E886120913C
:1045D000010420FF0DC0382F3871383019F4877F5F
:1045E000816006C0382F3171313011F48E7F8860C0
:1045F00021FF0DC0282F2871283119F4877E816191
:1046000006C0282F2171213111F48E7E886194FD1E
:10461000877E08957830B0F46630A0F4853090F449
:1046200090E3899FF001112486E0789FE00DF11D51
:104630001124E60FF11DEE0FFF1FEB5BFC4F859180
:104640009491089580E090E008950E943322882399
:1046500019F00E948B1808950E945622CB010895EC
:10466000ACE0B0E0E6E3F3E20C947130AE014F5FF2
:104670005F4F7A0188E0DA011D928A95E9F70FE62B
:1046800011E06A0183E7682E81E0782EAA24A394C2
:10469000B12C29E7822E21E0922EF80180818F3FF4
:1046A00009F440C0F894E82FE295EF70F0E021A102
:1046B0008F70A50102C0440F551F8A95E2F7CA0109
:1046C000922F982B91A392A18095892382A378940D
:1046D00000C0E3E7F1E0512C31E021912F3F89F058
:1046E000A22FA295AF70B0E090968C9190E02F70C1
:1046F00002C0959587952A95E2F780FD02C0832F29
:1047000001C080E0582A330F8E169F0631F7D8017A
:104710008C918F3F11F00E94B022B0EABA95F1F768
:10472000F60150820F5F1F4FFFEFCF1ADF0A6016AE
:10473000710609F0B2CF48E050E0B70189EE91E090
:104740000E94F631009741F028E0F701A9EEB1E0B0
:1047500001900D922A95E1F70091F201892B49F021
:1047600081E0809396040E948B1890939504809327
:10477000940480919604811102C0F12C22C0809192
:104780009404909195040E9470180597B0F310E07E
:1047900008501E4F44E050E069EE71E0C8010E94ED
:1047A000F631892B59F084E0E9EEF1E0D80101906F
:1047B0000D928A95E1F7FF24F39401C0F12C109239
:1047C00096040E943322E091F201882309F48DC0FF
:1047D00019861A861B861C860E2F10E008501E4F65
:1047E0008091E0048A3060F447EE50E2BE01675FDA
:1047F0007F4FC8010E941320882309F447C00AC0D4
:1048000080919704909198040E947018843F914081
:1048100058F74EC040E752E2BE01675F7F4FC801C4
:104820000E941320882391F140E052E2BE01675FAD
:104830007F4FC8010E941320882341F143EE51E2CB
:10484000BE01675F7F4FC8010E9413208823F1F0EB
:1048500040E950E2BE01675F7F4FC8010E9413200C
:104860008823A1F045EB51E2BE01675F7F4FC8018D
:104870000E941320882351F045E951E2BE01675F91
:104880007F4FC8010E9413208111D5C08091E004A0
:104890008F3F19F08F5F8093E0048091E0048A30AD
:1048A00008F4CBC00E948B189093980480939704CF
:1048B00080919D04882309F4B8C0FE01399684E0F4
:1048C000DF011D928A95E9F710929D04E091F101B4
:1048D000F0E0E850FE4F89859A85AB85BC858083E2
:1048E0009183A283B38381E0A1C0F0E0E850FE4F42
:1048F00084E0A0EAB4E001900D928A95E1F780EAA5
:1049000094E00E94D12A80939F048090A404909008
:10491000A504A090A604B090A7048091990490915A
:104920009A04A0919B04B0919C0488169906AA064B
:10493000BB06D1F08092990490929A04A0929B04B5
:10494000B0929C040E94332281110EC00E947F18F5
:10495000861A970AA80AB90A8092E5019092E601A0
:10496000A092E701B092E8018091A8049091A90477
:1049700090930D0280930C028091AA049091AB0455
:104980009093CA048093C9048091AC048093F4038B
:104990009091AE048091AF042091AD0420930E025B
:1049A0009093D3040E945B1C8091B004982F917067
:1049B0008695E090B104D090B204C090B304009109
:1049C000B6041091B7041092B704112329F110FF17
:1049D0000DC0992349F09091E60391609093E6030E
:1049E00060E00E942F2902C00E94BA2511FF06C074
:1049F00020E04C2D6D2D8E2D0E94562812FF07C0F1
:104A0000002319F00E94382502C00E94312513FFAF
:104A100003C081E08093F1048091B804882319F0E9
:104A20000E94171A02C00E94FD1980E08F292C965F
:104A3000EFE00C948D301092E0048091F10190E051
:104A400044E050E0BE01675F7F4F88509E4F0E9458
:104A5000F63121E020939D04892B09F037CFE5CF73
:104A60000895E4EFF4E011828281846082830895E6
:104A70006091E603669570E04BE050E081E691E0DE
:104A80000E94E931892B19F481E08093F5040E949A
:104A900025239093EF048093EE048091F6048460C4
:104AA0008093F6040895309115018091E60380FF0C
:104AB00016C0E091140163E0E69FF0011124EA5C66
:104AC000FD4F539A8BB1877F9BB198602FB7F894B5
:104AD000AF0163E0369F400D511D112414C0809139
:104AE000160190911701891720F7E82FF0E0AF0128
:104AF000440F551FE40FF51FEA5CFD4F1182108231
:104B000012828F5FF0CFE417F50789F0319168E0EA
:104B10009BB9000000C037FF8BB9330F000000C005
:104B200000C000C08BB900C06A9591F7ECCF2FBFD1
:104B30008FE594E00197F1F700C00000089590918F
:104B4000E60390FF16C0909116012091170192176D
:104B500070F4E92FF0E0DF01AA0FBB1FEA0FFB1F83
:104B6000EA5CFD4F8183608342839F5FF0CF0E94A8
:104B700053250895E6EEF3E080818E7F80830E94C6
:104B80003125E4EFF4E08281816082830E94532525
:104B900008958091E603282F269530E021153105F0
:104BA00019F48170826005C02A32310524F08170C9
:104BB00082658093E6038091E903893718F088E7DE
:104BC0008093E9030895CF92DF92EF92FF926B01F9
:104BD0007C010E94C925B701A60188E090E00E94EF
:104BE0003031FF90EF90DF90CF9008958091EA03ED
:104BF000882319F081508093EA036091E603709155
:104C0000E7038091E8039091E9030E94E32508956A
:104C10008091EA03833018F48F5F8093EA036091F8
:104C2000E6037091E7038091E8039091E9030E9405
:104C3000E3250895E6EEF3E083E0808311828FEFB1
:104C4000828388E783831482A4EFB4E012968C9168
:104C50001297836012968C93608171818281938117
:104C60000E94E3250895A0E0B0E0E9E3F6E20C94A9
:104C70007630E82EF62EE901E42FF0E0611106C04F
:104C8000EB5DFA4FE4914E2F2E2F71C0062F10E0EE
:104C9000EB5DFA4F4491F42FC42ED12C26E0829F75
:104CA000C00111242FEF30E0B9010E945A305BEAB5
:104CB0005603C001579F900D11248E0D911D8E0D2E
:104CC000911D582F550F580FD901A01BB10BAC9D4A
:104CD000C001AD9D900DBC9D900D1124E92FF59E56
:104CE000D0011124AB2FBB277901EA1AFB0AEC9CF7
:104CF000D001ED9CB00DFC9CB00D11245901A51AFA
:104D0000B108A09E7001A19EF00CB09EF00C112481
:104D1000EF2CFF242E193F092C9D80012D9D100D95
:104D20003C9D100D1124212F6230710591F048F443
:104D300061157105E1F061307105B9F4242F4B2F35
:104D400016C06430710569F040F06630710579F085
:104D50000CC0242F492FE12F0AC0492FEF2F2B2FF2
:104D600006C0292FE42F412F02C0292FEB2F4983A2
:104D70002883EA83CDB7DEB7EAE00C949230A3E053
:104D8000B0E0E5ECF6E20C947E309091E60390FF03
:104D90000DC0493708F048E79E012F5F3F4F0E9442
:104DA00033264B8169818A810E949F252396E2E008
:104DB0000C949A30CF93DF93EC01E6EEF3E043815D
:104DC00062818C810E94BF268C818F5F8C83DF91F2
:104DD000CF910895CF93DF93EC01EC81F0E0EF5B8E
:104DE000FD4F4491E6EEF3E0628181810E94BF268F
:104DF0008C818F5F8C83DF91CF9108951F93CF9328
:104E0000DF93EC018C81811109C081E08C831092C9
:104E1000F80492E090936D0180936C0180911601EB
:104E200090911701891770F4E82FF0E09F01220F8D
:104E3000331FE20FF31FEA5CFD4F118210821282D2
:104E40008F5FF0CF10E0609118011617D8F5E12FB1
:104E5000F0E070E0CF010E94CF3120911601820F67
:104E60002091F804022E000C330B90E0E217F307B8
:104E7000E4F020916D01022E000C330B2E173F073A
:104E8000A4F09C01220F331F820F931F9C012A5C08
:104E90003D4F4091E903493708F048E76091E80346
:104EA0008091E7030E9433260BC0FC01EE0FFF1F29
:104EB0008E0F9F1FFC01EA5CFD4F1182108212824F
:104EC0001F5FC1CF0E94532580916C012091F8048F
:104ED000280F2093F80490916D01980F90936D0125
:104EE00019165CF4022E000C330B4091180150E0AF
:104EF000415051092417350734F0819580936C0196
:104F0000813009F41C82DF91CF911F910895A0E0B8
:104F1000B0E0EDE8F7E20C947430EC018A8180FF98
:104F200003C0BB24BA9402C0BB24B3948C8181110A
:104F30000DC081E0B81206C08091180181508093A5
:104F4000F70402C01092F70481E08C83A12C46E3A1
:104F5000842E80911801A81608F047C08091160190
:104F6000CA2CD12C8601080F111DC801880F991F6A
:104F7000080F191F0A5C1D4FF8011182108212825E
:104F800034E0E32EF12C912C8091F704890D8733C6
:104F90002CF0682D0E94C131892F05C087FF03C006
:104FA00090911801890F082E000C990BC816D9068C
:104FB000A9F48091E9038E9DA0018F9D500D1124CD
:104FC0005595479555954795493708F048E7980115
:104FD0006091E8038091E7030E9433269B0CF1E087
:104FE000EF1AF10889F6A394B4CF0E94532580915B
:104FF000F70491E0B9120EC0811107C08091180129
:1050000081508093F7041C820FC081508093F70475
:10501000BC820AC090E001966091180170E00E9485
:10502000CF318093F7048C83CDB7DEB7ECE00C94DE
:105030009030FF920F931F93CF93DF93EC01F12CED
:105040000FEF10E060911801F61608F58091160137
:105050002F2D30E0280F311DC901880F991F280F0F
:10506000391F2A5C3D4F4091E903493708F048E772
:1050700070E0C8010E94CF31962F8C816091E803C7
:10508000F99E800D11240E943326F394DBCF0E94F9
:1050900053259A818C8190FF02C08F5F01C081509F
:1050A0008C83CDB7DEB7E5E00C949730A3E0B0E099
:1050B000ECE5F8E20C947730F82EE62E042FD22E91
:1050C0009091E60390FF7FC02091E703281308C06A
:1050D0008091E803861304C08091E903841729F0C6
:1050E0008091F60482608093F604E92FE695AE2F56
:1050F000B0E0A854BE4F8C918093F4049E7F923010
:1051000089F4402F093708F048E79E012F5F3F4F91
:105110006E2D8F2D0E9433264B8169818A810E94DA
:105120009F253FC0823019F40091E9033AC08630D0
:10513000B9F18930A9F18831A1F5E8518E2F81703C
:10514000C82EE695F0E0EB5DF94F1491B12C60911B
:105150001801B61610F5B19EC001112470E00E942E
:105160005A308F2DC11002C0860F01C0861B90914E
:1051700016012B2D30E0290F311DA901440F551FB9
:10518000240F351F2A5C3D4F402F093708F048E7B0
:105190006E2D0E943326B394DACF0E94532501C0AE
:1051A000F22EF092E703E092E8030093E903DD209A
:1051B00051F06091E6037091E7038091E8039091CC
:1051C000E9030E94E3252396E9E00C949330E6EE90
:1051D000F3E0438121E1421B08F440E021E06281D9
:1051E00081810E9456280895E6EEF3E0438121E193
:1051F000420F08F44FEF21E0628181810E9456281E
:105200000895E6EEF3E0628121E1621B08F460E0BC
:1052100021E0438181810E9456280895E6EEF3E063
:10522000628121E1620F08F46FEF21E04381818107
:105230000E9456280895E6EEF3E0818121E0438143
:1052400062818A500E9456280895E6EEF3E081813B
:1052500021E043816281865F0E94562808959091E3
:10526000E60390FF3BC09170811102C0926006C0BE
:105270008A3210F0926502C0880F982B9093E60353
:105280008091F60481608093F604662351F060916A
:10529000E6037091E7038091E8039091E9030E948F
:1052A000E3256091E603669570E04BE050E081E60F
:1052B00091E00E94E931892B19F00E94312502C04A
:1052C0000E94382581E08093F10420E04091E903B9
:1052D0006091E8038091E7030E9456280895809129
:1052E000E6038695815009F489E261E00E942F2946
:1052F00008958091E60386958F5F8A3208F081E0F9
:1053000061E00E942F2908958091E30480FD16C07A
:1053100081FD16C082FD18C08091E204882391F0BF
:10532000883290F428E0829FC001112468E270E086
:105330000E94CF31862F672B29F007C082E00895A5
:1053400084E0089581E0089588E008958091E30461
:1053500080FD14C081FD14C082FD16C08091E1045F
:10536000882381F08E3180F420E5829FC0011124D2
:105370006EE170E00E94CF31862F089584E1089598
:1053800088E2089588E0089580E508950E948B18CA
:105390002091EA04211104C02091EB04222321F082
:1053A0009093E7048093E6042091EC04211104C05B
:1053B0002091ED04222321F09093E5048093E404EE
:1053C000E091F703F091F803309749F082E0809381
:1053D000E8040480F581E02D88EE94E009950895B5
:1053E000CF93DF93C0913007D09131078A30B1F469
:1053F00020912705CE018A529540622F70E00E94CD
:105400005A30281B822F66E00E94B531C82FC15048
:1054100008F48FC080E20E94F029F9CF8D30E9F4C2
:10542000CA52D54020912705622F70E0CE010E941C
:105430005A30281B822F9E01280F311D2115324022
:1054400018F080E0C0E0D0E0C80FD11DC65DDA4F93
:10545000D0933107C09330076CC096E0FE01AAE2FA
:10546000B7E001900D929A95E1F7803E30F086E02A
:10547000FE0111928A95E9F70BC0F6E08F9FB0010B
:1054800011246F56784F46E050E0CE010E94013162
:10549000C0913007D091310746E050E0BE018AE26A
:1054A00097E00E94F631892B49F19E012A5235403E
:1054B000A90185E0569547958A95E1F781E090E04E
:1054C000BC0102C0660F771F4A95E2F7409128059C
:1054D00050912905462B572B2B5F3F4F65E03695A2
:1054E00027956A95E1F702C0880F991F2A95E2F780
:1054F000842B952B90932905809328059E01245297
:10550000354040912705642F70E0C9010E945A3050
:10551000481B463010F4240F311D211582E0380756
:1055200010F020E030E0265D3A4F309331072093B1
:105530003007DF91CF910895CF93DF93EC01FE0107
:105540008491882321F00E94F0292196F8CFDF91E1
:10555000CF910895EF92FF920F931F93CF93DF9314
:10556000EC017B0164E670E088E70E94B02D8C01BD
:10557000EC0EFD1ECE15DF0561F017FD0AC0FE0121
:10558000849164E670E00E94232E8C012196892B81
:1055900089F30E949A2EC801CDB7DEB7E6E00C94DD
:1055A0009630FC01AC014C5F5F4F8FEF91E321918E
:1055B000822728E030E087FF03C0880F892701C0D9
:1055C000880F21503109B9F7E417F50781F70895DD
:1055D000AAE2B0E0EEEEFAE20C947D30EFE1F5E005
:1055E00087E295E02091F10021938E179F07D1F774
:1055F00080912005833009F461C030F4813071F06E
:10560000823009F49BC0B2C08A3009F487C08B3065
:1056100009F46CC0893009F0A9C020C080911F0531
:10562000813A09F0A3C08091E800877F8093E80069
:105630008091230590912405892B21F460E28BEF62
:1056400094E003C060E080E090E070E00E94BF174B
:105650008091E8008B778093E80088C080911F05D7
:10566000813209F083C0809123059091240502972F
:1056700008F07CC08091E800877F8093E8008091EB
:10568000E80082FD05C080911D058111F8CF6EC034
:105690002091F3008091F20090E0922B029731F478
:1056A0008091F100813011F0863021F48091F10079
:1056B0008093FA048091E8008B7754C080911F0595
:1056C000813A09F053C08091230590912405892BDC
:1056D00009F04CC08091E800877F8093E8008091BA
:1056E000E80080FFFCCF80916E0137C080911F05DC
:1056F0008132E1F58091230590912405892BB1F544
:105700008091E800877F8093E8000E94391680919D
:10571000210580936E010E94E21F28C080911F0521
:10572000813221F58091E800877F8093E8000E9414
:105730003916809122058093F90418C080911F05C5
:10574000813AA1F48091E800877F8093E8008091FE
:10575000E80080FFFCCF8091F9048093F1008091F4
:10576000E8008E778093E8000E9439168091E80067
:1057700083FFCEC180911F0590912005492F50E0F5
:105780004A30510508F0C4C1FA01E056FF4F0C94AD
:10579000E331803821F0823809F0BAC108C0809125
:1057A0001B0590911C05992389F082600FC08091A0
:1057B00023058F70873008F0ABC18093E90080919A
:1057C000EB0085FB882780F91092E9009091E800B2
:1057D000977F9093E8008093F1001092F10065C1EB
:1057E000282F2D7F09F094C1882319F0823061F0B1
:1057F0008FC180912105813009F08AC1933009F071
:1058000080E080931C052EC08091210581112AC063
:10581000809123058F702FEF280F263008F078C174
:105820008093E9002091EB0020FF1CC0933021F40D
:105830008091EB00806214C09091EB009061909396
:10584000EB0021E030E0A90102C0440F551F8A950A
:10585000E2F74093EA001092EA008091EB00886042
:105860008093EB001092E9008091E800877F20C1CF
:1058700081114EC1109121051F778091E30080783E
:10588000812B8093E3008091E800877F8093E8007C
:105890000E9439168091E80080FFFCCF8091E300E0
:1058A00080688093E300111102C082E001C083E0B0
:1058B00080931D052DC18058823008F029C1809148
:1058C0002105909122058C3D53E0950779F583E001
:1058D0008A838AE289834FB7F894DE01139620E029
:1058E0003EE051E2E32FF0E050935700E49120FFB7
:1058F00003C0E295EF703F5FEF708E2F90E0EA30CB
:1059000010F0C79601C0C0968D939D932F5F2431F0
:1059100049F74FBF8091E800877F8093E8006AE2F3
:1059200070E0CE0101960E94BF17AEC040912305E2
:1059300050912405292F332723303105A9F068F42D
:105940002130310509F4F3C02230310509F0E0C0FF
:105950008BE390E0E0E2F7E044C02132310521F131
:105960002232310571F1D4C0992781309105A1F01F
:1059700058F0029709F0CCC0EDE6F7E0E4918E2FE5
:1059800090E0EDE6F7E02AC0EDE8F7E0E4918E2F35
:1059900090E0EDE8F7E022C0EBE7F7E0E4918E2F2E
:1059A00090E0EBE7F7E01AC04115510509F4C4C0D7
:1059B0004130510509F0ACC089E090E0EBE4F7E03C
:1059C00010C04115510509F4BCC04130510509F022
:1059D0009FC086EB90E0EAE2F6E003C0009709F48E
:1059E00097C02091E800277F2093E80020912505AB
:1059F000309126058217930708F49C0140E0211599
:105A0000310589F180911D05882309F43DC0853059
:105A1000D9F18091E80083FD37C08091E80082FDD4
:105A20002FC08091E80080FFEACF4091F300809181
:105A3000F20090E0942B2115310559F08830910542
:105A400040F444914093F100319621503109019680
:105A5000F2CF41E0089709F040E08091E8008E77AE
:105A60008093E800CCCF4111CDCF0AC080911D05B5
:105A7000882351F0853041F08091E80083FD04C017
:105A80008091E80082FFF2CF8091E8008B778093CD
:105A9000E8003EC08038E1F58091E800877F809380
:105AA000E80080911E058093F1008091E8008E77D8
:105AB0008093E8000E9439162BC0811129C0809183
:105AC0002105909122059927029714F58091E8000D
:105AD000877F8093E8001091210510931E050E9496
