:100000000C9414060C9431060C9431060C946E2D4D
:100010000C9431060C9431060C9431060C94310684
:100020000C9431060C9431060C940D1A0C94C919D9
:100030000C9472250C9431060C9431060C94310604
:100040000C9431060C9431060C9431060C94310654
:100050000C9431060C94E61A0C9431060C9431067B
:100060000C9431060C9431060C9431060C94310634
:100070000C9431060C9431060C9431060C94310624
:100080000C9431060C9431060C9431060C94310614
:100090000C9431060C9431060C9431060C94310604
:1000A0000C9431060C9431060C943106202020204B
:1000B0006162636465666768696A6B6C6D6E6F70B8
:1000C0007172737475767778797A31323334353664
:1000D00037383930524542545F2D3D5B5D5C233BE0
:1000E00027602C2E2F2020202B4314001A000800FC
:1000F00015001700292104001600070009000A0056
:10010000E1001D001B0006001900050000000000B2
:100110000000E32421522C002A00130012000C00DE
:1001200018001C00341433000F000E000D000B00EB
:100130002E322D00370036001000110000000000A4
:1001400000004C34225228002B003A003B003C00B7
:100150003D006500E0003E003F00400041004600D9
:10016000E100420043004400450048000000000058
:100170000000E30001002C002A004B004D0052005B
:100180004A00490000004E004F00510050004C0052
:10019000E5000000000000005300390000000000EE
:1001A0000000E600245228002B001E021E16260224
:1001B00027020000E000381438022F003000000051
:1001C000E100360237022F0230020000000000007A
:1001D0000000E30024522C002A00231435162502C7
:1001E00038003402000020021F022E0231003400C9
:1001F000E500220221022402310235140000000031
:100200000000E600010028000100000000000000DE
:1002100000000000E00000000000000000000000FE
:10022000E1000000000000000000000000000000ED
:100230000000E30001002C002A005600610060006D
:100240005F005400360057005E005D005C00550002
:10025000670063005B005A00590062000000000064
:100260000000E60001002800007C00000000000003
:10027000000000002078237825782778297800006E
:1002800021782478267828782A7800000000000059
:100290000000E30001002C00000000000000AB00A3
:1002A000AE00AC00000000000000A9000000AA00A1
:1002B000000000000000000000000000000000003E
:1002C0000000E60001002C0000DA0281FFD9F1DB1A
:1002D00020A4A62EAF00A0C0D30000A1C8D3000068
:1002E000AED580A81F408D1420001E0F0500047F8E
:1002F0003F1F643214643214783C1E1E140A0563D6
:100300006F726E6500434F524E4500808182838438
:10031000A0A1A2A3A4C0C1C2C3C4002097989920E1
:1003200020B7B8B92020D7D8D9200020D1D2D320E7
:1003300020B7B8B92020D7D8D92000209A9B9C207C
:1003400020BABBBC2020DADBDC200020949596206C
:1003500020B4B5B62020D4D5D62000209D9E9F2065
:1003600020BDBEBF2020DDDEDF2000202020202099
:1003700000A7A800AFB000C600CA00C800A5A6002C
:10038000ADAE008788008F9000C500C900C700CBC4
:10039000008586008D8E00ABAC00CFD000C600CAB1
:1003A00000C800A9AA00B1B2008B8C00CDCE00C558
:1003B00000C900C700CB00898A00919200000101AA
:1003C0000101010101010102020202020202020214
:1003D00003030303030303030404040404040405E4
:1003E00005050505060606060607070707070808A8
:1003F0000808090909090A0A0A0B0B0B0C0C0C0D59
:100400000D0D0E0E0E0F0F0F1010111111121213F1
:10041000131414151516161717181819191A1A1B6C
:100420001B1C1D1D1E1E1F202021222223242425CB
:100430002626272829292A2B2C2D2D2E2F30313204
:1004400032333435363738393A3B3C3D3E3F404114
:1004500042434445464748494A4C4D4E4F505153FC
:1004600054555658595A5B5D5E5F616264656668B3
:10047000696B6C6D6F7072737577787A7B7D7E8037
:1004800082838587888A8C8E8F91939596989A9C83
:100490009EA0A2A3A5A7A9ABADAFB1B3B5B7BABC97
:1004A000BEC0C2C4C6C9CBCDCFD1D4D6D8DBDDDF68
:1004B000E2E4E7E9EBEEF0F3F5F8FAFDFFFFAA7FDF
:1004C00055402223252628292A2C2D2F303233353A
:1004D00036383A3B3D3E4042434547494A4C4E50F0
:1004E00051535557595A5C5E6062646668696B6D1A
:1004F0006F71737577797B7D7F81838587898A8C1E
:100500008E90929496989A9C9E9FA1A3A5A7A8AA24
:10051000ACAEAFB1B3B4B6B8B9BBBCBEBFC1C2C359
:10052000C5C6C7C9CACBCCCDCED0D1D2D2D3D4D5F3
:10053000D6D7D7D8D9D9DADADBDBDBDCDCDCDCDC1C
:10054000DDDDDDDDDCDCDCDCDCDBDBDBDADAD9D9F4
:10055000D8D7D7D6D5D4D3D2D2D1D0CECDCCCBCA82
:10056000C9C7C6C5C3C2C1BFBEBCBBB9B8B6B4B3A8
:10057000B1AFAEACAAA8A7A5A3A19F9E9C9A98963E
:100580009492908E8C8A89878583817F7D7B797711
:100590007573716F6D6B6968666462605E5C5A59F1
:1005A00057555351504E4C4A4947454342403E3DB2
:1005B0003B3A3836353332302F2D2C2A2928262540
:1005C000232200AF00AE05010980A10185031901B6
:1005D0002AB700150126B700950175108100C005E6
:1005E0000C0901A101850419012AA002150126A008
:1005F00002950175108100C005010906A10185065B
:10060000050719E029E71500250195087501810204
:100610000507190029EF1500250195F075018102E4
:1006200005081901290595057501910295017503C4
:100630009101C005010906A101050719E029E71587
:100640000025019508750181029501750881010554
:1006500007190029FF150026FF009506750881007F
:100660000508190129051500250195057501910257
:10067000950175039101C009023B00020100A0FA37
:1006800009040000010301010009211101000122F8
:10069000440007058103080001090401000103006B
:1006A0000000092111010001226D000705820320CD
:1006B0000001120100020000000853460100010081
:1006C000010200010C0343006F0072006E00650020
:1006D0000000100366006F006F007300740061007B
:1006E0006E000000040309040000000000003E5BEF
:1006F0004F5B3E003E6B4F6B3E001C3E7C3E1C0041
:10070000183C7E3C18001C577D571C001C5E7F5E09
:100710001C0000183C180000FFE7C3E7FF000018AA
:1007200024180000FFE7DBE7FF0030483A060E0020
:10073000262979292600407F05050700407F0525E9
:100740003F005A3CE73C5A007F3E1C1C0800081C36
:100750001C3E7F0014227F2214005F5F005F5F0059
:1007600006097F017F00006689956A00606060600D
:10077000600094A2FFA2940008047E0408001020E8
:100780007E20100008082A1C0800081C2A080800FF
:100790001E10101010000C1E0C1E0C0030383E38BD
:1007A0003000060E3E0E06000000000000000000B3
:1007B0005F000000000700070000147F147F140092
:1007C000242A7F2A12002313086462003649562027
:1007D0005000000807030000001C224100000041F7
:1007E000221C00002A1C7F1C2A0008083E08080062
:1007F00000807030000008080808080000006060F1
:1008000000002010080402003E5149453E0000420D
:100810007F4000007249494946002141494D33005B
:100820001814127F10002745454539003C4A4949B4
:10083000310041211109070036494949360046492E
:1008400049291E0000001400000000403400000090
:10085000000814224100141414141400004122143E
:1008600008000201590906003E415D594E007C1204
:1008700011127C007F49494936003E414141220026
:100880007F4141413E007F49494941007F090909B3
:1008900001003E41415173007F0808087F0000417C
:1008A0007F4100002040413F01007F0814224100A9
:1008B0007F40404040007F021C027F007F04081000
:1008C0007F003E4141413E007F09090906003E414B
:1008D00051215E007F091929460026494949320005
:1008E00003017F0103003F4040403F001F204020A4
:1008F0001F003F4038403F006314081463000304A6
:10090000780403006159494D4300007F4141410093
:10091000020408102000004141417F00040201024E
:1009200004004040404040000003070800002054FD
:10093000547840007F284444380038444444280018
:10094000384444287F0038545454180000087E0965
:1009500002001824241C78007F0804047800004456
:100960007D4000002040403D00007F1028440000F2
:1009700000417F4000007C04780478007C08040477
:1009800078003844444438007C1824241800182483
:1009900024187C007C0804040800485454542400A3
:1009A00004043F4424003C4040207C001C204020A4
:1009B0001C003C4030403C004428102844004C902F
:1009C00090907C004464544C440000083641000080
:1009D0000000770000000041360800000201020418
:1009E00002003C2623263C0000000000000000001E
:1009F000C0E0F0F8F81800C0F0FCFEFFFFFFFFFFBA
:100A0000FFFF7E00000000F8042252E2424242E270
:100A1000522222224282020222220204F80000F81C
:100A200004020282422242820202028242221222F4
:100A300042820204F80000F8FCDEAE1EBEBEBE1EFE
:100A4000AEDEDEDEBE7EFEFEDEDEFEFCF80000F880
:100A5000FCFEFE7EBEDEBE7EFEFE0000000000004C
:100A600080804040202010100808101020204040B6
:100A700080808080C0C0E0E0F0F0F8F8F0F0E0E0C6
:100A8000C0C08080808040402020101008081010D6
:100A9000202040408080808040C060A050B058A896
:100AA00050B060A040C0808000F8FCFEFFE000FF76
:100AB000FFFFFFFFFF80FFFFFFFFFFFFFFFFFF1FA5
:100AC000070100000000001F20444A4742424247FD
:100AD0004A44404040404142444440201F00001FDF
:100AE0002040414040404040414041414F484848FB
:100AF0004F4141201F00001F3F7B75787D7D7D7831
:100B0000757B7F7F7F7F7E7D7B7B7F3F1F00001F0C
:100B10003F7F7E7F7F7F7F7F7E7F00000000000021
:100B200088885D5D3E3E7C7CF8F87C7C3E3E5D5D69
:100B3000888888885555232347478F8F4747232325
:100B4000555588888888D5D5E2E2C4C48888C4C44D
:100B5000E2E2D5D5888888885DD56BB66DD6ADDAEA
:100B60006DD66BB65DD5888800030F1F3F3F3F3FB2
:100B70001F1F3F3F7F7F7F3F3F1F3F7F7F7F7F7CE8
:100B80007878381C0F0004F80000F804201F0000DB
:100B90001F20FCF80000F8043F1F00001F2004F88D
:100BA0000000F8FC201F00001F3FFCF80000F8FCCC
:100BB0003F1F00001F3FFE7EBEDEEEDEBE7EFEFC5F
:100BC000F8007E7E70777777707E7E3F1F00808092
:100BD000C0C0E0E0F1F3FFFFF3F1E0E0C0C08080CF
:100BE00000000101020204040808040402020101D9
:100BF00000000000010102020404080804040202CB
:100C00000101000000000101030307070F0F0707A0
:100C100003030101000000000101030205060D0AA3
:100C2000050603020101000011241FBECFEFDAE028
:100C3000DEBFCDBF27E0A2EFB1E001C01D92AA3414
:100C4000B207E1F711E0A0E0B1E0E0EBF1E602C0AD
:100C500005900D92A23FB107D9F70E9499250C94F7
:100C600082300C940000482F20913B0590910205A2
:100C700057E0291302C080E0089530E0529FF00150
:100C8000539FF00D1124ED5FFA4F8181681306C068
:100C90008081481303C085818111EECF2F5F3F4FC4
:100CA0002770E7CFFC01AC014C5F5F4F8FEF91E302
:100CB0002191822728E030E087FF09C0880F89272B
:100CC00021503109C9F7E417F50791F70895880F06
:100CD000F7CFE8EDF0E080818E7F80831092E20014
:100CE0001092DA001092E100A0EEB0E08C918160E9
:100CF0008C9380818F77808319BCA7EDB0E08C91B5
:100D00008E7F8C9380818F7E80831092EB04089578
:100D10002091E4003091E50095E6A9012091EC00D6
:100D2000822F817020FF06C08091E80080FF06C0FE
:100D300080E008952091E80022FD1AC08091F80417
:100D4000882389F0853089F08091EB0085FD0FC004
:100D50002091E4003091E50042175307F9F29150D9
:100D6000E1F684E0089582E0089583E0089581E04B
:100D700008958091FA0487FF13C08091E80082FFF4
:100D800006C08091E8008B778093E80004C08091D2
:100D9000F8048111F2CF08958091F8048823D9F3E3
:100DA0008091E80080FFF8CF8091E8008E77ECCF4B
:100DB000982F9093E900242F762F50E0891731F077
:100DC0007091EC002091ED005091F00021FD07C0E2
:100DD0009F5F973071F78093E90081E0089530912B
:100DE000EB003E7F3093EB003091ED003D7F309380
:100DF000ED003091EB0031603093EB007093EC002C
:100E00002093ED005093F0002091EE0027FDE0CFFD
:100E100080E00895B0E0A0E0E0E1F7E00C94A82EB7
:100E2000C8EDD0E088818F7E8883E7EDF0E0808197
:100E30008160808384E082BF81E08093EB048881BD
:100E40008E7F888302EE10E0F80110821092DA00A3
:100E500081EEC82ED12CF601108288818F7788838D
:100E600088818068888388818F7D888319BC1092EF
:100E7000F8041092F9041092F7041092F60490EE20
:100E8000E92EF12CF70180818B7F8083888181603E
:100E9000888342E060E080E00E94D806F60180810D
:100EA0008E7F8083F801808181608083808188606B
:100EB0008083F70180818E7F808388818061888331
:100EC000CDB7DEB7E8E00C94C42EFC01809100059C
:100ED0009091010586179707A0F06115710529F417
:100EE0009091E8009E779093E80090E0611571057D
:100EF00051F4911108C08091E80082FF34C080E075
:100F00000895BC01F2CF8091F8048823C1F18530A7
:100F1000C1F18091E80083FD30C08091E80082FD3E
:100F2000EACF8091E80080FFE1CF8091F30020912B
:100F3000F200382F6115710519F02830310558F08D
:100F400091E02830310509F090E02091E8002E77FB
:100F50002093E800CBCF81918093F100615071091B
:100F60002F5F3F4FE7CF8091F804882341F0853011
:100F700041F08091E80083FFBECF81E0089582E0D8
:100F8000089583E00895089508958091ED040895EB
:100F900087E797E7909301088093000888E19AE03B
:100FA0000FB6F894A895809360000FBE90936000F0
:100FB000FFCF2FB7F8946091E7047091E804809117
:100FC000E9049091EA042FBF089590917901992343
:100FD000D1F09091E40497FF16C0E82FE695E695CE
:100FE000E695EE31E0F4F0E0E450FE4F282F277054
:100FF00081E090E001C0880F2A95EAF78095928100
:10100000892382830895E6EFF1E09191891303C06B
:10101000DF0111971C9291E0EC3FF907B1F70895B9
:10102000909179019923C1F09091E40497FF14C045
:10103000E82FE695E695E695EE31F8F4F0E0E45019
:10104000FE4F877021E030E001C0220F8A95EAF759
:101050008281822B82830895A6EFB1E0EFEF90E0CA
:101060002D91821751F0EF3F19F4211101C0E92FA2
:101070009F5F9630A9F7EF3F09F408950E2E000CFC
:10108000FF0BEC50FE4FE6CFA3E0B0E0EAE4F8E05F
:101090000C94AE2E2091E2043091E3042817390716
:1010A000A1F09093E3048093E204E091E004F091D6
:1010B000E104309751F024E029839B838A830084E4
:1010C000F185E02DCE01019609952396E2E00C947E
:1010D000CA2EA3E0B0E0EFE6F8E00C94AE2E20912B
:1010E000DE043091DF0428173907A1F09093DF0464
:1010F0008093DE04E091E004F091E104309751F038
:1011000023E029839B838A830084F185E02DCE012F
:10111000019609952396E2E00C94CA2E8091DB0497
:10112000811103C08091DD040895E091E004F09105
:10113000E104309729F00190F081E02D09950895A0
:1011400080E00895FA01811101C0FB01099508951D
:10115000E7E1F3E0118282818460828308956091E7
:1011600075018091CD0480FF0CC070E08091740106
:1011700023E0829FC0011124835E9C4F0E9468146B
:101180000895809176019091770123E0829FF0018C
:101190001124E35EFC4F891740F7118210821282FE
:1011A0008F5F3396F8CF9091CD0490FF0EC0909151
:1011B00076012091770133E0939FF0011124E35EE3
:1011C000FC4F921718F00E94AF0808958183608346
:1011D00042839F5F3396F5CFEDECF4E080818E7F04
:1011E00080830E94A808E7E1F3E082818160828326
:1011F0000E94AF0808958091CD04982F9C7F61F4E0
:10120000837084608093CD048091D004893718F076
:1012100088E78093D0040895883AB0F38370846A95
:10122000F1CFAF92BF92DF92EF92FF920F931F9395
:10123000CF93DF93082F162FE901E42FF0E0E3545A
:10124000FC4F611110C0E4915E2F4E2F4983E8835B
:101250005A83DF91CF911F910F91FF90EF90DF9014
:10126000BF90AF900895E62EF12C4491D42EE42F38
:10127000F0E026E0829FC00111242FEF30E0B90199
:101280000E948A2E802F90E0880F991F55E5569F67
:10129000D001579FB00D11248A1B9B0B982F990FDB
:1012A000890F5901AE18BF08AE9ED001AF9EB00D98
:1012B000BE9EB00D11245B2F189F80011124012FB9
:1012C00011275901A01AB10AAE9E8001AF9E100DE0
:1012D000BE9E100D11245901A81AB108AE9CC00180
:1012E000AF9C900DBE9C900D1124892F9927281B2F
:1012F000390B2E9FC0012F9F900D3E9F900D112402
:10130000E92F62307105A1F050F46115710509F4FF
:101310009DCF6130710581F0EB2F512F97CF643055
:10132000710569F080F06630710509F48FCFF4CF54
:10133000E42F4B2F592F8ACFE42F412F87CFEB2F4C
:10134000542F492F83CF4B2F5D2DE12F7FCFA3E06B
:10135000B0E0EDEAF9E00C94AE2E9091CD0490FF50
:101360000DC0493708F048E79E012F5F3F4F0E94AC
:1013700011094B8169818A810E94D3082396E2E09A
:101380000C94CA2ECF93DF93EC01EDECF4E0438193
:1013900062818C810E94A7098C818F5F8C83DF9191
:1013A000CF910895CF93DF93EC01EC81F0E0EE5301
:1013B000FB4F4491EDECF4E0628181810E94A7092A
:1013C0008C818F5F8C83DF91CF9108950F931F9352
:1013D000CF93DF93EC0110E000E09091780190173B
:1013E000110609F06CF40E94AF088C8190E0019620
:1013F000817099278C83DF91CF911F910F91089570
:1014000020917601A801420F511D9A01220F331F2E
:10141000240F351F235E3C4F4C816091CF04809197
:10142000CE0496959017110669F064F0442361F09C
:101430004091D004493708F048E70E9411090F5F36
:101440001F4FCBCF4423A1F340E0F7CFA3E0B0E0A0
:10145000ECE2FAE00C94AC2E8C0180911C0381111B
:101460000AC09E012F5F3F4F48E76FEF0E941109AE
:101470008A8180931C03F8016481613069F0809156
:101480001C0340E0662361F040E0623011F44091BB
:101490001C0380E060E004C060911C0340E080E039
:1014A0000E94D308F801848190E0019663E070E027
:1014B0000E94EF2E84832396E4E00C94C82EEF92D2
:1014C000FF920F931F93CF93DF93EC018C818111D7
:1014D00009C081E08C8310921B0392E0909373010A
:1014E00080937201809176019091770123E0829F31
:1014F000F0011124E35EFC4F891758F110E003E07E
:1015000060917801161758F10E94AF08809172011E
:1015100020911B03280F20931B0390917301980FB8
:1015200090937301191654F4022E000C330B409162
:1015300078014150550B2417350734F0819580937D
:101540007201813009F41C82CDB7DEB7E6E00C945D
:10155000C62E1182108212828F5F3396CDCFE12E7C
:10156000F12C70E0C7010E94EF2E20917601820FCE
:10157000482F50E020911B03022E000C330BE21683
:10158000F306D4F020917301022E000C330B2E15BC
:101590003F0594F0809F90011124235E3C4F4091C1
:1015A000D004493708F048E76091CF048091CE0419
:1015B0000E9411091F5FA4CFFA01EE0FFF1FE40F75
:1015C000F51FE35EFC4F118210821282F3CFB0E070
:1015D000A0E0EDEEFAE00C94A42EEC018A81BB248D
:1015E000BA9480FD02C0BB24B394A09078018C8192
:1015F000811109C081E0B81220C08FEF8A0D80935D
:101600001A0381E08C83F12CE12C46E3842EEA144A
:10161000B8F00E94AF0880911A0391E0B9125AC045
:10162000811153C080917801815080931A031C82EC
:10163000CDB7DEB7ECE00C94C02E10921A03E1CFC8
:10164000009176010E0D1F2D111DC801880F991FE5
:10165000080F191F035E1C4FF801118210821282BD
:1016600034E0C32ED12C912C80911A03890D87333D
:1016700044F1682D0E94E12E892F082E000C990B51
:101680008E159F05A9F48091D0048C9DA0018D9D9D
:10169000500D11245595479555954795493708F0B4
:1016A00048E798016091CF048091CE040E9411090F
:1016B0009B0CF1E0CF1AD108B9F68FEFE81AF80ABF
:1016C000A6CF87FFDACF8A0DD8CF815080931A0337
:1016D000BC82AECF90E001966091780170E00E94EC
:1016E000EF2E80931A038C83A3CFEF92FF921F9368
:1016F000CF93DF93EC0110E0EE24EA94F12C60919B
:101700007801161770F00E94AF089A818C8190FFC3
:101710002AC08F5F8C83DF91CF911F91FF90EF9054
:10172000089520917601422F410F5527551FCA0178
:101730009A01220F331F280F391F235E3C4F40911F
:10174000D004493708F048E770E0C7010E94EF2E47
:10175000962F8C816091CF04199F800D11240E94D7
:1017600011091F5FCCCF8150D5CF80E00895F89448
:10177000E82FE295EF70F0E031A1282F2F7081E083
:1017800090E001C0880F2A95EAF7982F909593234F
:1017900091A392A1892B82A3789408950F931F930C
:1017A0008091DB04882329F00E94D9071F910F91B3
:1017B00008950E94D9070091BD021091BE022091A8
:1017C000BF023091C002600F711F821F931FEECFC6
:1017D0009091E40492FF10C041E0282F247124303E
:1017E00009F040E031E0282F2871283009F030E07E
:1017F000431711F02CE0822793FF10C041E0282FFF
:101800002471243109F040E031E0282F287128317B
:1018100009F030E0431711F02CE082273091E50405
:1018200030FF10C051E0282F2171213009F050E025
:1018300041E0282F2871283009F040E0541711F0BA
:1018400029E0822731FF10C041E0282F217121318A
:1018500009F040E031E0282F2871283109F030E00C
:10186000431711F029E0822794FD877E089582387E
:101870009105B9F1B0F48133910509F47DC048F4C4
:101880008932910509F46DC08A32910509F47BC053
:1018900008958533910509F45FC08933910509F1F5
:1018A0000895833E9105D9F138F4803E910529F1E0
:1018B000823E910579F10895863E9105D9F1873EE2
:1018C000910509F43EC0843E910541F52091E5045F
:1018D00021FF24C08091E40484FD19C087EE90E0CC
:1018E00008952091E404237009F05AC02091E50482
:1018F00023FF14C089E290E008952091E40420FDC4
:1019000038C03091E50430FF09C024FF43C090E0A7
:1019100080E008952091E40422FDF7CF08952091FE
:10192000E40422FD3AC03091E50430FD39C024FFC3
:10193000F5CFEDCF2091E40423FFF0CF24FDE7CFD6
:10194000CDCF2091E40423FD2EC03091E50431FF7A
:10195000EECF84EE90E008952091E40425FFDECFE1
:10196000C9CF2091E40425FD21C02091E50423FF87
:10197000D5CF89E390E0D2CF2091E40426FFCECFEB
:101980008AE290E008952091E40426FFC7CF81E326
:1019900090E0089583EE90E0089582EE90E008953F
:1019A00080EE90E0089586EE90E0089585E390E063
:1019B0000895972F7830B8F46630A8F48530B0F4E5
:1019C00070E026E0929F600D711D1124FB0190E3F1
:1019D000899FE00DF11D1124EE0FFF1FE851FF4F0D
:1019E00085919491089580E090E0089581E0FCCF86
:1019F0001F93CF93DF930E94370CEC01C11580E554
:101A0000D807F0F5C11580E4D80708F09CC0C03EA7
:101A1000D10520F5CD3CD10508F082C0C83AD105EA
:101A200078F4C53AD10508F073C0C130D10519F179
:101A3000209709F1C430D105F0F4D0E0C0E01BC01C
:101A4000C33CD105D0F7C85AD0E0CC0FDD1FC35836
:101A5000DE4F0990D881C02DD4640DC0C11580E23D
:101A6000D80708F0D1C0C11581E0D80708F05AC0E6
:101A7000C83ED10510F7CE01DF91CF911F91089597
:101A8000C03682E5D80718F5C03482E5D80708F0DB
:101A90006BC0C03282E5D80708F05FC0C11582E58F
:101AA000D80708F497C02C2F2695269580E2289F0A
:101AB000900111248C2F8370C1E0D0E002C0CC0FC4
:101AC000DD1F8A95E2F7C22BD32BDD68D4CFC03A55
:101AD00082E5D80760F4C03882E5D80708F459C019
:101AE000CF71D0E0DC2FCC27C46FD06AC4CFC03C0C
:101AF00082E5D80708F462C0C03E82E5D80708F046
:101B00009CCFDC2FCC27CC27DF71C06FD06AB3CF3E
:101B1000C55AD0E0C658DE4FC881D0E0D064ABCF04
:101B2000D065A9CF8D2F0E94E80B182FCE019927E1
:101B30000E94370CC12FD0E0DC2FCC27CC27DF71DF
:101B4000C82BD92B98CFCE0199270E94370CCC27D0
:101B5000DF70C82BD92BD06A8ECFCF71D0E0DC2FAD
:101B6000CC27C16FD06A87CF2C2F2695269527705A
:101B700080E2289F900111248C2F8370C1E0D0E077
:101B800002C0CC0FDD1F8A95E2F7C22BD32BDC6895
:101B900072CF2C2F26952695277080E2289F9001E2
:101BA00011248C2F8370C1E0D0E002C0CC0FDD1F68
:101BB0008A95E2F7C22BD32BDA685DCF8C2F8F7119
:101BC0000E94E80BC82FD0E0DC2FCC27CC27DF7198
:101BD000D06251CF8C2F8F710E94E80B55E0D695C3
:101BE000C7955A95E1F7CF70D0E0DC2FCC27282F8E
:101BF00030E084FF05C044E0220F331F4A95E1F72F
:101C0000C22BD32BD06937CF8D2F8F710E94E80B59
:101C1000182FCE0199270E94370CC12FD0E0DC2F5E
:101C2000CC27CC27DF71C82BD92BD2CF80959091B0
:101C3000E40298239093E40208958091E402909145
:101C4000AF02892B9091E502992391F0892B909115
:101C50007901992371F09091E40497FF0AC09EE105
:101C60002EEF31E040E0915040F441111092E50236
:101C7000089596E026EF31E0F5CFF90151919F01EB
:101C8000552389F34F5FEFCF80913B05909102057B
:101C9000981301C008958F5F8770FACFB0E0A0E07D
:101CA000E4E5FEE00C94A72E7C010091E602109181
:101CB000E7028091CB029091CC02082B192BCFE048
:101CC000D0E0CC24C394D12CBC2EC6010C2E02C073
:101CD000880F991F0A94E2F780239123892B49F4F6
:101CE000219790F7B12C8B2DCDB7DEB7E9E00C949E
:101CF000C32EB7018C2F0E94D90C0E94F80C0197BB
:101D000079F3F1CFCF93DF93EC010E944E0EBE0129
:101D10000E94D90C0E94F80CDF91CF910895983061
:101D200078F5863068F5E82FF0E086E0989FE00DC2
:101D3000F11D11249E2F977083E0F695E7958A9503
:101D4000E1F7EE0FFF1FEE0FFF1FE25EFD4F50E0C9
:101D500040E080E0219130E0092E02C036952795C1
:101D60000A94E2F721703327042E01C0220F0A944F
:101D7000EAF7822B4F5F5F4F4430510559F70895C2
:101D800080E00895983098F5863088F5E82FF0E0E7
:101D900086E0989FE00DF11D11248E2F877041E0A1
:101DA00001C0440F8A95EAF783E0F695E7958A9596
:101DB000E1F7EE0FFF1FEE0FFF1FE25EFD4F30E079
:101DC00020E070E05191DF011197CB01022E02C09B
:101DD000969587950A94E2F78170819585278423EB
:101DE00085278C932F5F3F4F2430310559F7089595
:101DF0009093E7028093E602089521E030E002C06C
:101E0000220F331F8A95E2F7209530958091E602E4
:101E10009091E702822393230E94F80E08959091F7
:101E20003D028095892380933D02282F277069F415
:101E3000891759F09091E50492FF07C08695869521
:101E400086950E94FD0E10923D02089521E030E03B
:101E500002C0220F331F8A95E2F78091E60290912B
:101E6000E702822B932B0E94F80E08959093CC02E8
:101E70008093CB020895FC0124812223C1F080814C
:101E800091810E94820E92959F70963091F058F445
:101E9000925F9F70923058F4803F19F030F4883E82
:101EA00030F481E008959A5FF4CF843FD1F380E06D
:101EB0000895883EB0F3813FD1F7F3CFA6E0B0E0BC
:101EC000E4E6FFE00C94AD2E49835A8349815A81A0
:101ED0009923A1F0222391F0CA010E944E0E182FDF
:101EE000682F89819A810E94C20E69817A81812F2F
:101EF0000E94D90C2696E3E00C94C92ECA010E94D8
:101F00008F0E182FF2CFCF93DF93682F81E06A30C6
:101F100019F06D3031F480E00E941110DF91CF9103
:101F20000895809148079091490726E0FC01A2E4BA
:101F3000B7E001900D922A95E1F7603E08F458C091
:101F400026E0FC0111922A95E9F7C0914807D0914B
:101F5000490746E050E0BE0182E497E00E94B12FBD
:101F60009E0122543540892B41F1C90145E09695E7
:101F700087954A95E1F741E050E0BA0102C0660F4B
:101F8000771F8A95E2F7CB0160914005709141057A
:101F9000862B972BB9016B5F7F4FE5E076956795B0
:101FA000EA95E1F702C0440F551F6A95E2F7842BCA
:101FB000952B90934105809340052A5F3F4F4091B8
:101FC0003F05642F70E0C9010E948A2E481B4630ED
:101FD00010F4240F311D211572E0370710F030E0A6
:101FE00020E02E5B3A4F309349072093480796CF65
:101FF000F6E06F9FB00111246851794F46E050E040
:102000000E949B2FA2CFCF93DF93EC01FE0184911E
:10201000811103C0DF91CF9108950E94830F219613
:10202000F5CFCF93382FE0914807F0914907E2545C
:10203000F54020913F05622F70E0CF010E948A2E6B
:10204000281B822F332361F066E00E94D52EC82F13
:10205000C15010F4CF91089580E20E94830FF8CF11
:102060009F01280F311D2115324018F080E0F0E06B
:10207000E0E08E0F9F2F911D8E5B9A4F9093490742
:1020800080934807E7CF80917901882359F18091A7
:10209000E40487FF27C00E941D0E8093FD0140E2EB
:1020A00050E06EE372E08CEF91E00E94B12F892B3B
:1020B000C1F080E2ECEFF1E0AEE3B2E001900D920E
:1020C0008A95E1F7E091E004F091E104309749F05E
:1020D00086E08093FC010480F581E02D8CEF91E097
:1020E000099508950E941D0E8093F40148E050E088
:1020F0006EE572E084EF91E00E94B12F892B89F3A5
:1021000088E0E4EFF1E0AEE5B2E001900D928A954F
:10211000E1F7E091E004F091E104309711F30280DF
:10212000F381E02D84EF91E0DBCF1092E402809107
:1021300079018823C1F08091E40487FF14C0EEEF99
:10214000F1E08EE1DF011D928A95E9F790E080E0F1
:102150000E94690890E080E00E9444081092AF025B
:102160000E9443100895E6EFF1E086E0EBCFAAE28B
:10217000B0E0EDEBF0E10C94AD2E8AEF94E020910D
:10218000F100FC012193CF01F5E082309F07B9F700
:102190008091FB04833009F470C0B8F4813009F4F5
:1021A00047C0823009F4B1C08091E80083FF7EC24D
:1021B0008091FA049091FB049A3008F077C2E92FDD
:1021C000F0E0EC57FF4C0C94032F8A3009F48CC0DC
:1021D0008B3009F46FC0893039F78091FA0481326D
:1021E00019F78091FE049091FF040297E8F6809120
:1021F000E800877F8093E8008091E80082FF38C084
:102200009091F3008091F200029731F48091F100F7
:10221000813011F0863021F48091F1008093ED043B
:102220008091E8008B778093E8000E94B906BCCFCC
:102230008091FA04813A09F0B7CF8091E800877F56
:102240008093E8008091FE049091FF04892B61F453
:1022500068E08EEE94E070E00E9465078091E800EF
:102260008B778093E800A0CF60E090E080E0F3CF30
:102270008091F8048111C0CF97CF8091FA04813A00
:1022800009F092CF8091FE049091FF04892B09F010
:102290008BCF8091E800877F8093E8008091E800F1
:1022A00080FFFCCF809179018093F1008091E8005C
:1022B0008E77B9CF8091FA04813209F075CF809181
:1022C000FE049091FF04892B09F06ECF8091E80005
:1022D000877F8093E8000E94B9068091FC04809378
:1022E00079010E94951060CF8091FA04813209F043
:1022F0005BCF8091E800877F8093E8000E94B90659
:102300008091FD048093EC044FCF8091FA04813AD0
:1023100009F04ACF8091E800877F8093E8008091A0
:10232000E80080FFFCCF8091EC04BECF803899F0AC
:10233000823809F0BBC18091FE048F70873008F0AD
:10234000B5C18093E9008091EB0085FB882780F977
:102350001092E90006C08091F6049091F704911163
:1023600082609091E800977F9093E8008093F1005D
:102370001092F1008091E8008E7794C1882309F4CF
:1023800082C1823009F092C18091FC04811185C123
:102390008091FE048F702FEF280F263008F086C141
:1023A0008093E9002091EB0020FF77C1933031F456
:1023B0008091EB0080628093EB006FC19091EB0005
:1023C00090619093EB0021E030E001C0220F8A95EC
:1023D000EAF72093EA001092EA008091EB0088600F
:1023E000EACF811163C11091FC041F778091E30053
:1023F0008078812B8093E3008091E800877F809331
:10240000E8000E94B9068091E80080FFFCCF80912F
:10241000E30080688093E30082E0111183E0809301
:10242000F80444C18058823008F040C18091FC0417
:102430009091FD048C3D23E09207A1F583E08A830F
:102440008AE289834FB7F894DE01139620E03EE0DC
:1024500051E2E32FF0E050935700E49120FF03C0D6
:10246000E295EF703F5FEF708E2F90E0EA30C0F0A2
:10247000C7968D939D932F5F243159F74FBF80915D
:10248000E800877F8093E8006AE270E0CE01019661
:102490000E9465078091E8008B778093E80006C171
:1024A000C096E7CF4091FE045091FF04292F3327B7
:1024B0002330310509F444C078F52130310509F4A1
:1024C0006FC08BE390E0E7E7F6E02230310509F0DA
:1024D000EDC02091E800277F2093E80020910005BF
:1024E000309101058217930708F49C0140E0211503
:1024F000310509F064C0411162C08091E80082FD9D
:10250000C9CF8091F804882329F2853019F280918F
:10251000E80083FFF2CFBECF21323105A9F122328C
:10252000310509F0C3C04115510509F443C04130DC
:10253000510509F0BBC08DE690E0E6ECF5E0C9CFAF
:10254000992781309105C1F0009759F0029709F061
:10255000ADC0E4ECF6E0E4918E2F90E0E4ECF6E020
:1025600007C0E4EEF6E0E4918E2F90E0E4EEF6E0B2
:10257000009709F49BC0ADCFE2EDF6E0E4918E2F19
:1025800090E0E2EDF6E0F4CF4115510571F04130F5
:10259000510509F08BC089E090E0E2EAF6E099CFBE
:1025A00082E190E0E2EBF6E094CF89E090E0E9E8A8
:1025B000F6E08FCF84E490E0E3E3F6E08ACF809109
:1025C000F804882309F466CF853009F463CF80913D
:1025D000E80083FD5FCF8091E80082FD8ECF80917F
:1025E000E80080FF84CF9091F3008091F2002115E4
:1025F000310519F08830910550F041E0089709F055
:1026000040E08091E8008E778093E80070CF44919D
:102610004093F1003196215031090196E8CF80387E
:1026200009F044C08091E800877F8093E8008091A2
:10263000F9048093F1009ECE811138C01091FC0402
:102640001230A0F58091E800877F8093E800109316
:10265000F9040E94B906112311F084E005C08091AD
:10266000E30087FDFACF81E08093F80442E061EC5B
:1026700081E00E94D80642E261EC82E00E94D80626
:102680008091F80413C08091FC04813079F481E0DA
:10269000933009F080E08093F7041092E900809174
:1026A000E800877F8093E8000E94B9068091E800E7
:1026B00083FF0AC08091E800877F8093E8008091C3
:1026C000EB0080628093EB00AA96E3E00C94C92EA5
:1026D000882321F00E94160E0E944310089588233B
:1026E00039F09091E402982B9093E4020E944310F9
:1026F0000895882339F19CEF980F913A28F40E94AD
:10270000E5070E944310089590E2980F983050F426
:10271000877091E001C0990F8A95EAF7892F0E948E
:10272000160EEFCF9BE5980F933028F490E080E0F1
:102730000E9469080895885A8B3120F490E080E067
:102740000E9444080895CF93C82F8823B9F18CEFD5
:102750008C0F813AA8F580917901882301F180914D
:10276000E40487FF1CC0EC2FE695E695E695F0E0C3
:10277000E450FE4F828190E04C2F477021E030E022
:1027800002C0220F331F4A95E2F782239323892B3D
:1027900081F08C2F0E94E5070E9443100AC0E6EFEB
:1027A000F1E08CEF91E02191C21799F38E179F070A
:1027B000D1F78C2F0E9410080E944310CF910895EA
:1027C00080E28C0F883068F4C77021E030E001C0EF
:1027D000220FCA95EAF78091E402822B8093E402EB
:1027E000EBCFEBE5EC0FE33040F4F0E0E658FE4FC2
:1027F000808190E00E946908E1CFC85ACB31F0F6A1
:10280000EC2FF0E0EE0FFF1FE358FE4F8081918127
:102810000E944408D3CF0F931F93CF93DF938B0174
:10282000EA019091F804943061F58093E9008FEF0C
:102830009091E800815095FD06C095ED9A95F1F7CD
:1028400000008111F5CF8091E80085FF1AC00E9439
:102850008806811111C08091E80085FD06C0809135
:10286000E8008E778093E800F2CFF80181918F0124
:102870008093F100219779F78091E8008E7780931B
:10288000E800DF91CF911F910F91089543E050E050
:10289000BC0182E00E940B14089540E250E0BC01AC
:1028A00082E00E940B140895CF93DF93EC0148E07F
:1028B00050E0BC0181E00E940B1488E0FE01AEEE06
:1028C000B4E001900D928A95E1F7DF91CF910895E0
:1028D000539A4BB1477F5BB15860EFB7F8949B01B7
:1028E000220F331F260F371F280F391F28173907CC
:1028F00041F4EFBF8FE594E00197F1F700C00000CD
:102900000895DC016D91CD0178E05BB9000000C055
:1029100067FF4BB9660F000000C000C000C04BB994
:1029200000C07A9591F7E2CFB0E0A0E0EAE9F4E1E7
:102930000C94A62E7C015B016A018091BC0201E02F
:1029400010E08A3010F40AE010E0C1E0D0E0B501F8
:10295000C701F6010995811104C021960C171D07C6
:102960002CF4CDB7DEB7EAE00C94C22ECC9F9001D8
:10297000CD9F300D300D112490E080E045E34A9565
:10298000F1F70000019682179307C1F7E0CF0E948C
:1029900095102FEF84E39CE0215080409040E1F7B8
:1029A00000C0000088E19AE00FB6F894A8958093E3
:1029B00060000FBE90936000FFCFAB0124E630E0D3
:1029C000BC0188E70E943E2C21E0892B09F020E021
:1029D000822F08958091D9049091DA04911103C057
:1029E00091E089270895882369F062E070E084EC23
:1029F00095E00E94DD14811103C08091D9040895EF
:102A00001092D9048091D904EBCFCF93C091D9040F
:102A10008091DA048823D1F00E94D907605D7A485A
:102A20008F4F9F4F6093D5047093D6048093D70443
:102A30009093D804C11108C062E070E082EC95E088
:102A40000E94DD14811105C0C091D9048C2FCF9153
:102A5000089581E08093D904F7CFB0E0A0E0E3E3EC
:102A6000F5E10C94A02EFC016280448081E0848317
:102A7000E2ECF4E07490E1E4F5E0E491C091D0047C
:102A8000C695C158D0E0CC0FDD1FED2EFF24812C60
:102A900075E0972EAA24AA94B12C55245A94E719CC
:102AA000CE2ED12C80917801881638F00E94AF0884
:102AB000CDB7DEB7E0E10C94BC2E082D10E082E02B
:102AC000861568F0909EF001919EF00D1124E1545E
:102AD000FC4F8091CE0480838091CF04818341108C
:102AE0002DC0909EF001919EF00D1124E154FC4FF9
:102AF0001382128220917601200F312F311DC901DE
:102B0000880F991F280F391F235E3C4F909EF001BC
:102B1000919EF00D1124E154FC4F4281493708F099
:102B200048E7909EF001919EF00D1124E154FC4F76
:102B3000618180810E9411098394B4CF909EE0014D
:102B4000919ED00D1124C154DC4F8B818823E9F074
:102B500081508B83859DC00111246C8170E00E949F
:102B60008A2EFB01FF27EE53FB4F8491E82FE719D4
:102B7000E59DC0011124B6010E948A2E8091D004E7
:102B8000689FB00111247A83B5CF0E948B2FB501C5
:102B90000E94EF2E8E159F050CF0ACCF82E08615BB
:102BA00088F40E948B2FB5010E94EF2E88830E942B
:102BB0008B2F2091CF042695622F70E00E94EF2E7C
:102BC000280F2983909EF001919EF00D1124E1546D
:102BD000FC4F12828091D004893C58F088EC909E82
:102BE000F001919EF00D1124E154FC4F8483838306
:102BF00081CF8431A0F784E1F2CFB0E0A0E0E3E040
:102C0000F6E10C94A42E49015A016B017C010E944B
:102C1000FB088401A4016A2D7B2D88E090E00E94CE
:102C2000FD2F94014A2D5B2DB601C70100E20E94E1
:102C3000242F622F84E290E00E94EB2FCDB7DEB705
:102C4000ECE00C94C02EA3E0B0E0E9E2F6E10C94D5
:102C5000A72EF82EE62E042FC22E9091CD0490FFC1
:102C600045C02091CE04281308C08091CF0486135C
:102C700004C08091D004841729F0809119038260E8
:102C800080931903E92FE695E695AE2FB0E0A9539E
:102C9000BE4F8C91809317039C7F943059F5402F41
:102CA000093708F048E79E012F5F3F4F6E2D8F2DAB
:102CB0000E9411094B8169818A810E94D308F09298
:102CC000CE04E092CF040093D004CC2079F0209180
:102CD000CD046091D1047091D2043F2D4E2D502F20
:102CE0008091D3049091D4040E94FD152396E9E0CD
:102CF0000C94C32E823019F40091D004E0CF8630BA
:102D0000B9F18930A9F18831D1F6E8516E2F61709F
:102D1000B62EE695F0E0E354FB4F1491D12C609170
:102D20007801D61618F00E94AF08C9CFD19EC00115
:102D3000112470E00E948A2E8F2DB11017C0860FCB
:102D400020917601622F6D0D7727771F9B01220F4F
:102D5000331F260F371F235E3C4F402F093708F0E3
:102D600048E76E2D0E941109D394D9CF861BE8CF76
:102D7000F22EA5CFEDECF4E0438121E1421B08F4F3
:102D800040E021E0628181810E9423160895EDECEC
:102D9000F4E0438121E1420F08F44FEF21E062812A
:102DA00081810E9423160895EDECF4E0628121E117
:102DB000621B08F460E021E0438181810E942316B8
:102DC0000895EDECF4E0628121E1620F08F46FEF09
:102DD00021E0438181810E9423160895EDECF4E007
:102DE000818121E0438162818A500E9423160895E7
:102DF000EDECF4E0818121E043816281865F0E94F5
:102E0000231608958091D104882319F0815080936E
:102E1000D1042091CD043091CE044091CF04509143
:102E2000D0046091D1047091D2048091D304909128
:102E3000D4040E94FD1508958091D104833018F4C4
:102E40008F5F8093D1042091CD043091CE044091C6
:102E5000CF045091D0046091D1047091D20480913C
:102E6000D3049091D4040E94FD1508959091E50437
:102E700092FB222720F9281779F080FB92F9909392
:102E8000E5046091E4047091E50484E090E00E9420
:102E9000093082E00E940F0F0895B0E0A0E0E3E562
:102EA000F7E10C94A92E7901C82F880FDD0B41158D
:102EB0005105A9F0FE0193E0EE0FFF1F9A95E1F78F
:102EC000EC5FFE4F818192818E589D4F208130E0D2
:102ED0004217530708F49A01A9010E94BE2FCE01A0
:102EE0000E94142ED82E8823D1F001151105B9F0B7
:102EF00083E0CC0FDD1F8A95E1F7FE01EC5FFE4F0A
:102F0000438150E00417150708F4A801CC5FDE4F99
:102F10006C817D816E587D4FC7010E94BE2F8D2D23
:102F2000CDB7DEB7E7E00C94C52EA3E0B0E0EBE947
:102F3000F7E10C94AC2E8091B0029091B102A09177
:102F4000B202B091B3022FB7F8944091E7045091C8
:102F5000E8046091E9047091EA042FBF481B590B03
:102F60006A0B7B0B81E0443651056105710508F45D
:102F700080E09091E4029983443651056105710522
:102F800020F420918402291381E09091AF029A836A
:102F9000811106C081E020918502291301C080E0E3
:102FA0009091E5029B83811105C08091860211E01A
:102FB0008917C9F010E000E030E020E043E050E085
:102FC000BE016F5F7F4F87E00E944D17182F882347
:102FD00051F00E94D9076093B0027093B1028093C0
:102FE000B2029093B302812F2396E4E00C94C82E92
:102FF000A4E0B0E0EEEFF7E10C94AC2E40919F021C
:103000005091A0026091A1027091A2022FB7F89492
:103010008091E7049091E804A091E904B091EA045A
:103020002FBF841B950BA60BB70B11E084369105BF
:10303000A105B10518F10E94CE0B6E5F7F4F8F4F37
:103040009F4F69837A838B839C8310E000E030E09C
:1030500020E044E050E0BE016F5F7F4F83E00E94BC
:103060004D17182F882351F00E94D90760939F02B3
:103070007093A0028093A1029093A202812F2496C4
:10308000E4E00C94C82EA5E0B0E0E9E4F8E10C948B
:10309000AA2E7B0101E010E09E012B5F3F4F50E024
:1030A00040E070E060E080E00E944D17182F882318
:1030B00009F452C040919702509198026091990290
:1030C00070919A022FB7F8948091E7049091E804E8
:1030D000A091E904B091EA042FBF841B950BA60BC5
:1030E000B70B84369105A105B10538F483E792E06A
:1030F0000E9452069D81891779F104E010E09E013B
:103100002F5F3F4F50E040E070E060E081E00E94C0
:103110004D17082F83E792E00E94520611E09D812F
:10312000981310E0102331F10E94D90760939702A1
:10313000709398028093990290939A0289819A8160
:10314000AB81BC818093930290939402A0939502EB
:10315000B093960211E00EC08091730290917402B8
:10316000A0917502B091760289839A83AB83BC8368
:103170001111E4CF8091930290919402A091950255
:10318000B0919602F70180839183A283B383812F4C
:103190002596E6E00C94C62E8F929F92AF92BF9236
:1031A000EF92FF920F931F93CF937B01942FB9015E
:1031B000A801F70180809180A280B380EFB7F894D6
:1031C0000091E7041091E8042091E9043091EA04A9
:1031D000EFBF081919092A093B0904361105210511
:1031E000310518F4C1E0992381F010E000E030E0EF
:1031F00020E00E944D17C82F882339F00E94D9077C
:10320000F70160837183828393838C2FCF911F9109
:103210000F91FF90EF90BF90AF909F908F90089587
:10322000A1E0B0E0E6E1F9E10C94AC2E8091D90484
:1032300089832091920290E041E02817190609F451
:1032400040E001E010E09E012F5F3F4F68EB72E02D
:1032500089E00E94CC182196E4E00C94C82EABE0E3
:10326000B0E0E5E3F9E10C94AC2E88E0EDECF4E09D
:10327000DE01119601900D928A95E1F78091170376
:1032800090911803A091190389879A87AB8741E031
:103290008B85811101C040E00BE010E09E012F5FA3
:1032A0003F4F64EB72E088E00E94CC1881111092CD
:1032B00019032B96E4E00C94C82EA1E0B0E0E3E6FD
:1032C000F9E10C94AC2E0E948E08898341E0909124
:1032D0008302981301C040E001E010E09E012F5FDF
:1032E0003F4F6BEA72E086E00E94CC182196E4E042
:1032F0000C94C82E0F931F9341E020917F023091D0
:1033000080028091E6029091E7022817390709F4BC
:1033100040E002E010E026EE32E067EA72E084E08E
:103320000E94CC188823B1F041E0209181023091B5
:1033300082028091CB029091CC022817390709F4C0
:1033400040E002E010E02BEC32E063EA72E085E05E
:103350000E94CC181F910F9108950F931F93CF9344
:10336000DF93EC0144E050E067E772E00E94B12F88
:1033700041E0892B09F440E004E010E09E016BE994
:1033800072E082E00E94CC18DF91CF911F910F91E3
:1033900008951F920F920FB60F9211242F933F930F
:1033A0004F935F936F937F938F939F93AF93BF934D
:1033B000CF93DF93EF93FF93D091E900DF7080917B
:1033C000EC00C82FC17080FDC0E81092E900809128
:1033D000F000877F8093F00078940E94B7101092DD
:1033E000E9008091F00088608093F000CD2BCF70D1
:1033F000C093E900FF91EF91DF91CF91BF91AF9121
:103400009F918F917F916F915F914F913F912F91FC
:103410000F900FBE0F901F9018951F920F920FB62E
:103420000F9211242F933F934F935F936F937F934A
:103430008F939F93AF93BF93EF93FF938091E1009E
:1034400082FF09C08091E20082FF05C08091E10007
:103450008B7F8093E1008091DA0080FF24C080910F
:10346000D80080FF20C08091DA008E7F8093DA0040
:103470008091D90080FF9DC080E189BD82E189BD36
:1034800009B400FEFDCF81E08093F8048091EB0445
:10349000811109C00E9469060E940A078091E2001A
:1034A00084608093E2008091E10080FF17C08091EA
:1034B000E20080FF13C08091E2008E7F8093E200E3
:1034C0008091E20080618093E2008091D800806268
:1034D0008093D80019BC85E08093F8048091E100C6
:1034E00084FF2BC08091E20084FF27C080E189BD6A
:1034F00082E189BD89B5982F917080FFFBCF8091C3
:10350000D8008F7D8093D8008091E1008F7E8093DA
:10351000E1008091E2008F7E8093E2008091E200E2
:1035200081608093E2008091F904882309F447C008
:1035300084E08093F8048091F8048091E10083FF97
:1035400027C08091E20083FF23C08091E100877F44
:103550008093E10082E08093F8041092F904809156
:10356000E1008E7F8093E1008091E2008E7F809366
:10357000E2008091E20080618093E20042E060E03E
:1035800080E00E94D8068091F00088608093F0006F
:10359000FF91EF91BF91AF919F918F917F916F912B
:1035A0005F914F913F912F910F900FBE0F901F9001
:1035B000189519BC1092F8041092EB0474CF809106
:1035C000E30087FD93E09093F804B5CF78941F92C1
:1035D0001FB61F9211248F939F93AF93BF93809137
:1035E000E7049091E804A091E904B091EA040196FF
:1035F000A11DB11D8093E7049093E804A093E90412
:10360000B093EA04BF91AF919F918F911F901FBE1D
:103610001F9018959C014FB7F8948091E704909102
:10362000E804A091E904B091EA044FBF821B930B18
:1036300008952FB7F8948091E7049091E804A09141
:10364000E904B091EA042FBF08950F931F93CF931D
:10365000DF93C62FD42F022FFC0185818823A9F088
:1036600060933E050E94191B90933D0580933C0595
:10367000C77081E001C0880FCA95EAF70E946F13F6
:10368000DF91CF911F910F91089580913E056813AE
:1036900035C080913C0590913D050E940A1B883CF5
:1036A000910560F510E21D0FCD17B9F080E28C0F87
:1036B000883040F4C77081E001C0880FCA95EAF7EE
:1036C0000E946813183048F481E09D2F977001C064
:1036D000880F9A95EAF70E946F13802F0E94A31318
:1036E000802F0E947913183058F6D77081E001C0FE
:1036F000880FDA95EAF70E946813C2CFC77081E09D
:1037000001C0880FCA95EAF7F6CF8091DB048823C1
:1037100019F00E94191B08950E94CE0BCB01089549
:103720006091CD046695669570E04BE050E087E6C9
:1037300091E00E94A42F892B19F481E08093180353
:103740000E94851B909312038093110380911903AB
:1037500084608093190308959091CD0490FF3AC03E
:103760009370811138C094609093CD0480911903B7
:10377000816080931903662391F02091CD043091EC
:10378000CE044091CF045091D0046091D104709147
:10379000D2048091D3049091D4040E94FD156091CD
:1037A000CD046695669570E04BE050E087E691E0C9
:1037B0000E94A42F892BB9F00E94A80881E0809371
:1037C000140320E04091D0046091CF048091CE0496
:1037D0000E94231608958A3210F0946AC5CF880F8C
:1037E000880F982BC1CF0E94901BE8CF8091CD0409
:1037F00086958695815009F489E261E00E94AC1BB0
:1038000008958091CD04869586958F5F8A3208F061
:1038100081E061E00E94AC1B08959091CD0490FF7F
:1038200009C096959695981728F0961718F40E9457
:10383000011C089561E00E94AC1B0895B0E0A0E077
:10384000E4E2FCE10C94A62E8C01FC018481882327
:1038500009F467C021E040815181628173819581C3
:103860000E945E0FEC01F8019581992309F47BC455
:1038700081818093EB0280818093EA0280E28093D1
:103880005F01D093E902C093E8029E0130522115F6
:10389000304238F4F8018681807F09F45EC0FE0171
:1038A0000AC09E01305421153041C8F4F8018681C8
:1038B000807FFE0109F0FF27ED33F10528F4E45580
:1038C000FF4FE491E0935F01FE01E851FC47E730D0
:1038D000F10508F042C0E257FF4C0C94032F9E0103
:1038E0003A9521153F41D8F29E01205A32452032A7
:1038F000310550F3FE01E0CF26E241EE61EEC80152
:103900000E94251B80913D02877059F0F801858146
:10391000882339F08091E50482FF03C082E00E9491
:103920000F0FCDB7DEB7EAE00C94C22E27E245EECA
:1039300065EEE5CF26E241EE60EEE1CF27E245EE0F
:1039400064EEDDCF26E241EE62EED9CF27E245EE0E
:1039500066EED5CF28E241E0EBCF10923E059E0106
:1039600030572332310508F018C484E090E00E94FB
:10397000D52F9093E5048093E404FE01E150F047D5
:10398000E232F10520F4EB56FF4C0C94032F8091AA
:10399000E40481608093E40495C08091E50488602C
:1039A0008093E5048FC08091E4048260F3CF80911E
:1039B000E4048460EFCF8091E4048860EBCF8091D1
:1039C000E5048160EDCF8091E5048260E9CF8091CC
:1039D000E4048061DFCF8091E4048062DBCF8091DA
:1039E000E4048064D7CF0E9495108091E40480683D
:1039F000D1CF8091E4048C60CDCF8091E5048360C9
:103A0000CFCF8091E4048E7FC5CF8091E504877F7E
:103A1000C7CF8091E4048D7FBDCF8091E4048B7F7C
:103A2000B9CF8091E404877FB5CF8091E5048E7F84
:103A3000B7CF8091E5048D7FB3CF8091E4048F7E72
:103A4000A9CF8091E4048F7DA5CF8091E4048F7B82
:103A5000A1CF0E9495108091E4048F779BCF809135
:103A6000E404837F97CF8091E5048C7F99CF809188
:103A7000E40482FB992790F921E0922790FB82F9D8
:103A800090FB83F987CF8091E504982F90959170F2
:103A90008E7F892B90FB81F983CF9091E404892F4D
:103AA0008F7B96FF806476CF0E9495109091E404FE
:103AB000892F97FB87F980586DCF61E08EE090E009
:103AC0000E94EB2F6091E4047091E50484E090E0A3
:103AD0000E9409300E94951015CF60E0EFCF9091C1
:103AE000E404892F8F7E94FF806154CF9091E40489
:103AF000892F8E7F90FF81604DCF9091E504892FB3
:103B0000877F93FF88604CCF85E357C380911C0269
:103B1000811104C089E20E94E50751C385E3FBCF10
:103B2000992309F42CC3C3303CE7D30709F4F4C04C
:103B300008F0D7C0C1159CE7D90709F4E0C0C1302F
:103B4000DC4709F4EFC0F8018581C081D181882369
:103B500009F4F6C0CE010E944E0EF82E682FCE0159
:103B60000E94C20EBE018F2D0E94D90C0E94F80C3B
:103B7000D82FC92FA82EF801C580B680B2943FE097
:103B8000B32280913D02877009F1EC2CCC20F9F032
:103B9000892F807F803469F080E28D0F8830B0F00B
:103BA000892F807E803229F4F1E0FD1778F4BB2064
:103BB00069F08091E50482FF09C082E00E940F0F46
:103BC00080913D028770EE24E3948111E12CDC2E7C
:103BD000D2942FE0D2222BE02D1508F416C1ED2D42
:103BE000F0E0E954FF4C0C94032F8091CD0480FF4A
:103BF0001EC0282F2E7F2093CD043091CE044091FB
:103C0000CF045091D0046091D1047091D20480917E
:103C1000D3049091D4040E94FD150E94A8088091BD
:103C200019038160809319030E94AF086BCE8160F5
:103C30008093CD0461E0869586950E94AC1B62CE90
:103C400046EF5BE161E07CE10E94A2085BCE41E0CF
:103C50005CE166EF7BE1F8CF4EEE56E168EF76E18E
:103C6000F3CF48EF56E16EEE76E1EECF44ED56E14C
:103C700061EE76E1E9CF41EE56E164ED76E1E4CF25
:103C80004AEB56E167EC76E1DFCF47EC56E16AEBB1
:103C900076E1DACF42E057E16CE177E1D5CF4CE154
:103CA00057E162E077E1D0CF61E081E0C6CF65E027
:103CB00082E00E940D1C26CE68E086E0FACF6EE01E
:103CC00089E0F7CF64E18FE0F4CF67E185E1F1CFE0
:103CD00061E288E1EECF61E082E2AFCF69E284E2A7
:103CE000E8CFCB35FCE7DF0749F1CC352CE7D2072D
:103CF000D9F0CA35DC4709F026CF81E01CC00E940C
:103D000095108FEF94E3ECE081509040E040E1F7B4
:103D100000C000000E94C8076FEF7FEF90E080E0D6
:103D20000E9409300E94C7148091E50482FB882715
:103D300080F991E089270E94361705CF80E0FBCFFC
:103D4000CE010E948F0EF82E0DCF3C2F3F70F32E28
:103D5000C07F19F0F29490EFF922CC20B9F0FF2047
:103D600069F080E28D0F883010F0A11009C08091B9
:103D7000E402F82AF092E4020E9443108D2F43C01F
:103D80008091AF02F82AF092AF02F6CF8D2F0E94F9
:103D90007913FF20D1F1D05ED83010F0A11004C00B
:103DA0008F2D0E94160E06C0F0948091AF02F8226B
:103DB000F092AF020E94431028C08C2F8F70F82E13
:103DC000C07FC03219F0F29480EFF822AA2059F097
:103DD00091E0A91609F479C0CC2009F485C0BB2074
:103DE00009F447C0CBCF8091E50482FD3EC0CC20D2
:103DF000B1F1FF2039F08091E402F82AF092E40258
:103E00000E94431080E00E94A3132D2D2850330BF5
:103E10002430310510F40E948E08EE20A9F0809124
:103E20003D0280FD11C0F801158286958695869524
:103E30000E94260FC8010E941E1C80913D0286959B
:103E4000869586950E94FD0E20E0F8014081518103
:103E500062817381848195810E945E0F62CD80E0D2
:103E60000E947913FF2089F29BCFCC20A1F0B110E2
:103E700004C08F2D0E946F13C8CFE1E0BE12C5CFE2
:103E80008091E5029F2D9823F91609F4BECFF82AF8
:103E9000F092E502BACFB110B8CF8F2D0E9468130F
:103EA0009091E5028F2D892329F08F2D809589230C
:103EB0008093E50280911D029F2D982309F4A5CFE0
:103EC000F094F822F0921D02A0CFCC2029F0F5E06A
:103ED000FB1508F49ACFCDCF24E02B1508F495CF2D
:103EE0008F2D0E94681391CFBB20D1F339E3A31229
:103EF00009C08FEF97EEE3E081509040E040E1F79A
:103F000000C000008D2F0E9479137FCF8C2F8695E3
:103F10008695837069F0813009F077CF8D2F9C2FC3
:103F20009370C11002C080E090E00E9444086DCF01
:103F30008D2F9C2F9370C11002C080E090E00E94F2
:103F4000690863CF8C2F837009F03FC0C1105DCF2B
:103F50004D2F429546954770440F440F2D2F2F70DB
:103F600030E0042E02C0220F331F0A94E2F790E0E3
:103F700080E0D4FF09C08FE090E002C0880F991F55
:103F80004A95E2F780959095C695C695C370C23064
:103F900099F078F44091CB025091CC02C13039F0C5
:103FA000822B932B842395230E94360F2ECF242B14
:103FB000352B822B932BF8CF822B932B2091CB0286
:103FC0003091CC0282279327EFCF8695CC2011F039
:103FD0008C2F8170882309F418CF4D2F4295469578
:103FE0004770440F440F2D2F2F7030E0042E02C075
:103FF000220F331F0A94E2F790E080E0D4FF09C05B
:104000008FE090E002C0880F991F4A95E2F78095F3
:104010009095C695C695C370C23099F078F44091DA
:10402000E6025091E702C13039F0822B932B8423B2
:1040300095230E94F80EE9CE242B352B822B932B4F
:10404000F8CF822B932B2091E6023091E702822752
:104050009327EFCFCF70CC2029F08C2F0E94260F12
:104060008D2F08CF8D2F0E9468138C2F0E94FD0E7C
:10407000CCCE8D2FF2EFAF1699F1FA1570F020EF3C
:10408000A216D1F031EFA31691F0CC2009F45BC059
:10409000B11074CE8C2F8F7127C093EFA91639F110
:1040A000E4EFAE12F2CF8091E50482FD2EC08C2F9A
:1040B0008F71CC20D9F218C0CC2069F0F4E0FB1548
:1040C00008F4A3CECF7181E090E002C0880F991F61
:1040D000CA95E2F7B8CF25E02B1508F496CEF2CFBB
:1040E0008C2F8F71C110C2CF0E94260F8ECE90E010
:1040F00080E0CC2009F49DCFCF7181E090E002C038
:10410000880F991FCA95E2F794CFCC2089F0CF7120
:104110008C2F0E94260F8091E50482FF07C038E0B3
:10412000C39FC0011124836080933D028C2FDCCF9C
:1041300081E00E940F0F81E08B1508F066CE82E0CF
:104140000E940F0F62CEBB2059F0893309F0DACEFE
:104150009FEFE7EEF3E09150E040F040E1F7D0CE82
:104160008C2F8F7183CFFE01E851FC47E730F105BA
:1041700008F4B1CBC6312CE7D20709F4C7CC809143
:10418000E4028272FE01E052F847E531F10508F0E1
:10419000DACCED53FF4C0C94032FC631FCE7DF075C
:1041A00009F0BECC8091E4028A7A91E009F490E0B3
:1041B00090931C028111A8CC89E20E9410080E94F1
:1041C0004310A0CBCF93DF9380913C02807F09F016
:1041D0004DC080913B02882309F448C0E0913B0523
:1041E00050910205C0913702D09136026091380299
:1041F0007091390247E05E17C9F18E2F90E0E49F7D
:10420000F0011124ED5FFA4F2481222391F1489FA0
:10421000F001499FF00D1124DF01AD5FBA4F1196F7
:104220002C9111972C1325C02C912D1322C015967B
:104230002C91159721111DC012962D913C91261B92
:10424000370B283C3105A8F480913C028F708061C7
:1042500080933C02E75FFA4F80818F70806180839A
:1042600086E392E00E941E1C0E94440EDF91CF91D3
:104270000895FC013196E770BECFA4E1B0E0E3E41D
:10428000F1E20C94A42E8C0186E0F801DE011F9669
:1042900001900D928A95E1F7F8018481E58096E31B
:1042A000A92E92E0B92E90913A02911128C088234C
:1042B00019F1EE20F1F0C8010E943B0FF82E88237F
:1042C000C1F087E0F801D50101900D928A95E1F7E0
:1042D00080913A02813031F4809136029091370218
:1042E0000E94820E0E94E2208F2D6496ECE00C94D6
:1042F000C02EC8010E941E1CFF24F394F5CFD0806D
:10430000C18082809380F0903B02209138023091EE
:104310003902A401421B530BFF2009F4D9C0483CC9
:10432000510508F092C08823F9F2909137028091EC
:104330003C02282F207F09F056C0C91214C090916A
:104340003602D91210C0E11048C08F70806180938E
:104350003C0286E392E00E941E1C80913C02F80120
:104360008683F12CC1CFE11038C06C2D8D2D0E94B9
:1043700033066C2D8D2D0E943306E82E8111F1CF6E
:10438000DF86C88A8F8598890E94820E292F229500
:104390002F70243058F49F70223088F0992399F0C0
:1043A000F8019681907F79F4FE2C9ECF2A5F2F70C2
:1043B000223068F0C8010E941E1CEF2CF5CF992313
:1043C00011F0882389F3805E883070F3F3CF803F4B
:1043D00058F3815F833070F7E7CF80913C028160B2
:1043E00080933C02BECFC91207C090913602D91209
:1043F00003C0EE2009F48DC0C8010E943B0F882342
:1044000009F477CFEE2009F474CF80913C0280321A
:1044100088F02091360230913702398728879B86B1
:104420008A8690913A029C871D868E87CE010896D7
:104430000E941E1C87E0F801A6E3B2E001900D92F5
:104440008A95E1F70E94E22057CF90913C02292FF4
:10445000207F51F486E392E00E941E1C87E0F50164
:1044600011928A95E9F77DCF882309F43DCF809199
:1044700037028C1110C080913602D8120CC0E110A6
:104480000AC09683C8010E941E1C87E0F5011192A4
:104490008A95E9F729CFC8010E943B0F882309F4C8
:1044A00028CFEE2009F425CF80913C02803210F213
:1044B00020913602309137023A8329839C828B8285
:1044C00090913A029D831E828F83CE010196B0CFD8
:1044D000483C5105D0F6882309F40ECFFE2CEE207F
:1044E00009F407CF809137028C1120C080913602E9
:1044F000D8121CC080913C0280FD0FC0982F907F85
:1045000061F08683903F31F0982F907F905F8F709D
:10451000892B8683C8010E941E1C87E0F801A6E350
:10452000B2E001900D928A95E1F7DECEC8010E94BB
:104530003B0F81117FCF80913C02816080933C02D0
:10454000C8010E941E1CD0CEABE1B0E0EAEAF2E264
:104550000C94AC2E4E8B5F8B688F798F8A8F9B8FDC
:10456000192F91111092AF021D8A86E0FE017696F6
:10457000DE011F9601900D928A95E1F70A8D0023C6
:1045800041F021E04F85588969897A89C8010E94E4
:104590005E0F0B8B1C8B87E0FE013F96DE011896A9
:1045A00001900D928A95E1F7CE0108960E943D2177
:1045B00081112AC087E0FE013896DE011196019034
:1045C0000D928A95E1F78C858823F1F02091020500
:1045D00030E0C90101968770992740913B05481743
:1045E0001906E9F097E0929FD001939FB00D112436
:1045F000AD5FBA4FFE01319601900D929A95E1F7A9
:10460000809302050E94440E17E080913B05909133
:104610000205891312C06B96E4E00C94C82E0E9428
:1046200095101092020510923B0587E0E6E3F2E058
:10463000DF011D928A95E9F7E7CF819FC001112420
:104640008D5F9A4F0E943D21882329F380913B057D
:1046500090E001968770992780933B05D6CFA3E120
:10466000B0E0E5E3F3E20C94A32E8E01045F1F4F4C
:1046700088E0D8011D928A95E9F785EBC82E81E084
:10468000D82EF12CE12CAA24A394B12C2FEB822E4E
:1046900021E0922EF60181916F018F3F09F442C013
:1046A000F894E82FE295EF70F0E021A18F70A5015A
:1046B00002C0440F551F8A95E2F7CA01922F982B2A
:1046C00091A392A18095892382A3789400C0E9EBFD
:1046D000F1E0712C31E021912F3F09F4CFC0A22FDE
:1046E000A295AF70B0E090968C9190E02F7002C0D0
:1046F000959587952A95E2F780FDC0C0832F782A8B
:10470000330F8E169F0639F7F601319780818F3F60
:1047100011F00E94B70B50EA5A95F1F7F801EE0D2F
:10472000FF1D70828FEFE81AF80A94E0E916F10491
:1047300009F0B0CF48E050E0B80181EC92E00E946F
:10474000B12F009741F028E0F801A1ECB2E0019010
:104750000D922A95E1F70091CA0210E000531D4F17
:10476000892B09F48DC081E080936A020E94191B95
:104770009093690280936802F12CE090DB04EE20B4
:1047800009F4D8C019821A821B821C828091BC0253
:104790008A3008F099C043E458E1BE016F5F7F4F53
:1047A000C8010E949414882309F4B3C04DEA59E16A
:1047B000BE016F5F7F4FC8010E949414882309F4E3
:1047C000A8C048EF57E1BE016F5F7F4FC8010E944C
:1047D0009414882309F49DC04AE759E1BE016F5F34
:1047E0007F4FC8010E949414882309F492C04DE5BC
:1047F00059E1BE016F5F7F4FC8010E949414882366
:1048000009F487C045E957E1BE016F5F7F4FC801DA
:104810000E949414882309F47CC04FE259E1BE0140
:104820006F5F7F4FC8010E949414882309F471C000
:1048300040E159E1BE016F5F7F4FC8010E949414AF
:10484000882309F466C01092BC028091C90290E0EE
:1048500044E050E0BE016F5F7F4F80539D4F0E9448
:10486000B12F21E020937102892B09F044C0E12C83
:104870008E2D8F296396EDE00C94BF2E80E03FCF04
:10488000F0906A02FF2009F477CF8091680290913E
:1048900069020E940A1B059708F46ECF44E050E0BD
:1048A00061EC72E0C8010E94B12F892B59F084E0BD
:1048B000E1ECF2E0D80101900D928A95E1F71092B7
:1048C0006A025BCFF12CFBCF80916B0290916C025E
:1048D0000E940A1B843F914008F05DCF80917102D5
:1048E000882329F284E0FE013196DF011D928A952A
:1048F000E9F710927102E091C902F0E0E053FD4F38
:1049000089819A81AB81BC8180839183A283B383A7
:10491000AFCF8091BC028F3F31F08F5F8093BC029C
:104920008A3008F492CF0E94191B90936C028093F6
:104930006B02D4CFC090C902D12CF601E053FD4FD9
:104940006F0184E0F801A3E7B2E001900D928A952F
:10495000E1F783E792E00E9452068093720284E0BE
:10496000E7E7F2E0D60101900D928A95E1F7809099
:104970007B0290907C02A0907D02B0907E0280919C
:104980006D0290916E02A0916F02B0917002881634
:104990009906AA06BB06B1F080926D0290926E0253
:1049A000A0926F02B09270020E94D907861A970AED
:1049B000A80AB90A8092BD029092BE02A092BF02DC
:1049C000B092C00280917F02909180029093E702A2
:1049D0008093E60280918102909182029093CC02B2
:1049E0008093CB02809183028093DD042091840226
:1049F00090918502809186022093E4029093AF0209
:104A00009091E50492FF05C09091E502891380938F
:104A1000E5028BE0E7E8F2E0DE01119601900D92ED
:104A20008A95E1F79981892F86958695DA80CB80E2
:104A3000BC800A851B85109291021123F9F010FFAA
:104A40000AC090FF22C09091CD0491609093CD0454
:104A500060E00E94AC1B11FF06C020E04B2D6C2DC6
:104A60008D2D0E94231612FF04C0002389F00E949E
:104A7000901B13FF03C081E0809314038091920286
:104A8000882349F00E940515F3CE0E94EC08E3CF7D
:104A90000E94A808EECF0E94EA14EACEA6E0B0E099
:104AA000E4E5F5E20C94AC2E0E94191B8C01809178
:104AB0006602909167028017910781F019821A822D
:104AC0000E94191B682F49815A81792F80E090E05C
:104AD0000E94A42210936702009366022696E4E0E7
:104AE0000C94C82E1F921FB61F9211248F939F9370
:104AF000AF93BF938091E604811113C08091E704C6
:104B00009091E804A091E904B091EA044196A11DB6
:104B1000B11D8093E7049093E804A093E904B09357
:104B2000EA04BF91AF919F918F911F901FBE1F907C
:104B30001895CDB7DEB72A970FB6F894DEBF0FBE33
:104B4000CDBF85B7806885BF85B7806885BF84B7CE
:104B5000877F84BF0FB6F894A89580916000886124
:104B600080936000109260000FBE80E890E00FB666
:104B7000F89480936100909361000FBE85EB9BE0F9
:104B80009093F3018093F2010E9469060E940A0744
:104B90008091E20084608093E20078948091F80430
:104BA0008823A1F01091E9001F709091EC00892FEB
:104BB000817090FD80E8182B1092E9008091E80048
:104BC00083FD0E94B7101F701093E90082E084BD3E
:104BD00093E095BD9AEF97BD80936E001092BD0251
:104BE0001092BE021092BF021092C0028091D800B3
:104BF00080618093D8002AE12A95F1F700C0809166
:104C0000D900182F117080FD04C00E94690610920F
:104C1000F8041093DB041093DC0410935401112367
:104C200009F4D7C0109274018BE1809375010E9442
:104C3000282D809154018091540194E0811190E0DD
:104C40009093CA0284E0891B8093C90284E90E9480
:104C5000B70B86E60E94B70B87E90E94B70B86EC7C
:104C60000E94B70B09EB11E0D8018D918D018F3FA8
:104C700011F00E94B70BB1E00F3B1B07A9F788E0CA
:104C8000E0EDF2E0DF01282F1D922A95E9F7E1EC33
:104C9000F2E0DF011D928A95E9F790E080E00E9442
:104CA000D52F863E9E4F09F466C066EE7EEF90E0FB
:104CB00080E00E94093060E082E090E00E94EB2FEB
:104CC00081E090E09093CC028093CB0261E083E09E
:104CD00090E00E94EB2F60E074E184E090E00E949D
:104CE000093060E086E090E00E94EB2F60E087E012
:104CF00090E00E94EB2F40E050E0BA0188E090E0A5
:104D00000E94FD2F60E084E290E00E94EB2F60E0C3
:104D100087E190E00E94EB2F60E08CE090E00E9441
:104D2000EB2F60E08DE090E00E94EB2F19821A8259
:104D30001B821C821D821E821F82188648E050E062
:104D400068E170E0CE0101960E94DB2F40E050E068
:104D5000BA0180E290E00E94FD2F40E050E0BA01ED
:104D60008FE090E00E94FD2F40E050E0BA0183E127
:104D700090E00E94FD2F82E090E00E94C72F809378
:104D8000D80284E090E00E94D52F9093E5048093B0
:104D9000E4040E942F23EFEFF6E721E0E150F0401A
:104DA0002040E1F700C000000E942F238091DC0426
:104DB000E4E08111E0E0F0E0E053FD4F808181FF0D
:104DC0000EC06FEF7FEF90E080E00E9409300E94FC
:104DD000C8078BE180937401809375012ACF83E02B
:104DE00090E00E94C72F90E00E94360F83E08093EE
:104DF0000C0380E280933F050E94C62B6BE070E0BD
:104E00008FED92E00E94DD148823E9F180910C037C
:104E100065E070E081FD23C18AED92E00E94DD141F
:104E2000882389F16DE070E088EC92E00E94DD1447
:104E3000882349F10E94D907605D7A488F4F9F4FC0
:104E40006093D5047093D6048093D7049093D804CC
:104E5000E2E4F5E080E092E0DF019C011D92215048
:104E60003040E1F7F0934907E09348078FEF9FEF59
:104E7000909341058093400581E08093DA0480930C
:104E8000D90410920D038091CD02811184C088E075
:104E900090E00E94CF2F4B015C0184E290E00E94E1
:104EA000C72F282F30E040E050E060E070E080E065
:104EB00090E000E20E94092F282939294A295B291C
:104EC0002093CD043093CE044093CF045093D0046C
:104ED0006093D1047093D2048093D3049093D4044C
:104EE000309119033360309319032C7F09F043C0CC
:104EF00025E02093CD041092CE042FEF2093CF0411
:104F000028E72093D0041092D10425E030E04FEF41
:104F100058E760E00E94FD1588E090E00E94CF2FE6
:104F20006B017C0184E290E00E94C72F282F30E0C3
:104F300040E050E060E070E080E090E00E94092FE7
:104F4000B22FA32FF42FE52F5B0197018601BC2917
:104F5000A12BFE29E32BB093CD04A093CE04F093B4
:104F6000CF04E093D0046093D104B092D204809334
:104F7000D3049093D4040E94FB080E94A808809157
:104F8000CD0480FF05C060E0869586950E94AC1B2D
:104F900081E08093CD028091DB04811102C00E94E8
:104FA0002B2D85E591E09093E1048093E00430E4BB
:104FB000632EFF24F3948091F80400E112E1853020
:104FC00009F499C00E942F2309ED12E020EDC22EB2
:104FD00022E0D22E21EE32E0D601F80191918D919E
:104FE0002E173F0709F4A3C09817C1F37090DB0494
:104FF000E12CF601B1906F01D8018D908D018B14D9
:1050000029F1A12C992493948B24882D8921B1F026
:105010007720A1F0A982EA820E94191B9C838B83CE
:10502000FD8291E0892D8B2109F490E09E834981D6
:105030005A816B817C818D810E94A422A394990C5A
:10504000B6E0AB12E2CFF8013197B082E394E8E02A
:10505000EE12CFCF0E94CE0BEE24E3946DC085ED0F
:1050600092E0DCCE8091F804843009F434C00E94D0
:10507000A8088091CF02811109C0F092CF028091DF
:10508000CD0481708093CE020E94EC080E94EA1445
:105090001092E60488E190E00FB6F894A89580930A
:1050A00060000FBE6092600083B7817F846083BF21
:1050B00083B7816083BF7894889583B78E7F83BFE1
:1050C0000FB6F894A8958091600088618093600085
:1050D000109260000FBE8091F704882361F00E9457
:1050E0002F23E0EDF2E081918111E8C2A8EDB2E05A
:1050F000AE17BF07C1F78091F804853009F4B2CF2D
:105100000E9495100E948E081092CF028091CE02CC
:10511000882351F08091CD0481608093CD0460E0BC
:10512000869586950E94AC1B0E94901B4BCF9813CE
:105130005DCF0E944E25E12C80911803882309F44D
:1051400064C080911703E091CD04E695E695E81BD5
:10515000E0931303823009F0C3C0F0E0E550FD4F47
:10516000E4910E2F10E092EDC92E99E0D92E809196
:105170001403882361F0109214030E94851B9093FE
:1051800012038093110310921603109215030E94CC
:10519000851BE0911103F09112039C012E1B3F0B24
:1051A0002F3F3F4790F52091E3022223B1F0109268
:1051B000E3022091E1023091E202821B930B8F3FC8
:1051C0009F4758F4205D3A483093E2022093E10271
:1051D00080911903886080931903A0901503B09003
:1051E0001603E00FF11FF0931203E093110381E126
:1051F00093E0F60109958091150390911603892B90
:1052000021F4AB2811F0F092E3028091DA048823B4
:1052100009F465C180910E0390910F030E940A1B4F
:10522000C29708F43DC10E94191B90930F0380930D
:105230000E0382E495E090934907809348078BE042
:1052400093E00E9403100E948E0881FDACC08FEF96
:1052500092E00E9403108BE693E00E94031080917D
:10526000E6029091E702009709F4AFC084FF9EC068
:105270008BE593E00E9403108BE693E00E940310FD
:105280001091E5028091E402182B012F0878147424
:10529000002309F49DC084E993E00E9403108DE887
:1052A00093E0112309F49CC08FE893E00E9403105F
:1052B00086E893E0111102C083E893E00E94031096
:1052C000002309F493C080E893E00E9403108BE769
:1052D00093E00E940310111193C081E793E092C004
:1052E000863059F4F0E0E850FD4FE4910E2F10E0C5
:1052F00082ECC82E89E0D82E3ACF893061F4E69549
:10530000F0E0EB50FD4FE4910E2F10E0B5E7CB2E0F
:10531000BBE0DB2E2CCF8F3061F4E695F0E0EE5051
:10532000FD4FE4910E2F10E0A7EECA2EAAE0DA2E70
:105330001ECF853159F4F0E0E151FD4FE4910E2F7D
:1053400010E0FFE5CF2EFAE0DF2E11CF823249F4D4
:10535000EDEEF2E005911491E6E2CE2EEAE0DE2ECB
:1053600006CF04EF11E066EEC62E69E0D62E83323A
:1053700009F4FDCE00ED17E053ECC52E57E0D52E15
:10538000843209F0F4CE8E2F63E00E94D52EE92FEF
:10539000F0E0E651FD4FE4910E2F10E07DE2C72EC4
:1053A00075E1D72EE4CE85E093E053CF81FF03C0B3
:1053B0008BE493E05FCF82FF03C08BE393E05ACF8F
:1053C00083FF03C08BE293E055CF8BE193E052CF94
:1053D00081E993E00E940310111105C089E893E070
:1053E0000E94031069CF8BE893E060CF8DE793E0D4
:1053F0000E940310112389F189E793E00E940310B2
:1054000084E793E00E9403101091E5028091E4028A
:10541000182B012F01711272002321F18AEB93E006
:105420000E94031083EB93E0112321F185EB93E0BD
:105430000E9403108CEA93E00E940310002311F1F4
:1054400086EA93E00E94031081EA93E00E94031031
:10545000111122C087E993E021C087E793E00E9401
:1054600003103BCF87EB93E00E940310111107C09C
:105470008FEA93E00E94031089EA93E0DDCF81EB8D
:1054800093E0D6CF83EA93E00E9403101123B1F199
:105490008FE993E00E9403108AE993E00E940310D1
:1054A0008091400590914105892B69F58091D9043F
:1054B0008823A9F00E94D9070091D5041091D60441
:1054C0002091D7043091D804601B710B820B930B91
:1054D0006F3F7F4F8F4F9F4710F40E94EA14E110F7
:1054E0000E9405150E948E0890911003891709F4F7
:1054F00062CD809310030E94D9075DCD8DE993E0C2
:105500000E940310A7CF8091DA04882379F280915A
:105510000D038111CBCF0E940515209140053091DC
:1055200041052115310511F280E041E050E0082FDE
:1055300010E02A01082E02C0440C551C0A94E2F720
:10554000B20162237323672B11F48F5FF0CF909128
:105550000C0390FF9AC0880F880F880F8093620118
:1055600010926501895F8093630183E080936601F7
:1055700024E630E047E050E060E671E088E70E9412
:10558000FA2B892B09F092CFA80195E0440F551F03
:105590009A95E1F780910C0380FF89C0ECEEF2E070
:1055A00080E2DF011D928A95E9F7E3ECF1E0FA87EA
:1055B000E9870FEB11E087E0A82E99249394A98541
:1055C000BA852D91BA87A987F80121908F01240E01
:1055D000352E311CC1018E5B9A4F1C01E22FF0E089
:1055E000E451FD4F30E020E07A2C721AB92C022EE3
:1055F00001C0BB0C0A94EAF7610190E0D6018D91DD
:105600006D018B21672D691B6770862E062E000C9D
:10561000770BB82F01C0BB0F8A94EAF78B2E7195D8
:10562000619571096770772701C086956A95EAF7D9
:10563000882A8081882A80829F5F9830F9F62F5FC0
:105640003F4F31962830310579F6E985FA85E75CD8
:10565000F14009F0B4CF04E610E020E230E04CEE77
:1056600052E060E488E70E94842C892B09F01ECF69
:1056700040945094809140059091410548225922D0
:10568000509241054092400511CF8295880F807657
:10569000809362019801369527953695279520933A
:1056A0006501815E809363012093660161CF4E5B4B
:1056B0005A4F04E610E020E230E0D3CF09BD19BD17
:1056C00009B400FEFDCF8091D8008F7D8093D80073
:1056D0008091E00082608093E0008091E00081FD95
:1056E000FCCF0E94951007CDEF92FF920F931F936E
:1056F000CF93DF93182FEB011092BC0084EA8093C4
:10570000BC000E94191B7C018091BC0087FF27C050
:105710008091B900887F883029F08091B900887F16
:10572000803189F51093BB0084E88093BC000E940F
:10573000191B8C018091BC0087FF1EC02091B9000D
:10574000287F90E080E0283191F081E090E02034E3
:1057500011F490E080E091958195910908C0C7010E
:105760000E940A1BC817D90778F68EEF9FEFCDB7B6
:10577000DEB7E6E00C94C62EC8010E940A1BC817CB
:10578000D907C0F6F2CF8FEF9FEFF1CF1092B9009B
:105790008CE08093B80008950F931F93CF93DF930D
:1057A000EB018093BB0084E88093BC000E94191B2E
:1057B0008C018091BC0087FF11C02091B900287F27
:1057C00081E090E0283211F490E080E0919581959D
:1057D0009109DF91CF911F910F910895CF3FDC0781
:1057E00041F3C8010E940A1BC817D90710F78EEFB2
:1057F0009FEFEFCFB0E0A0E0E0E0FCE20C94A32E3E
:10580000782E5B016A0189010E94191B4C01C1E0DD
:10581000D0E00431110558F0C5E0D0E00F3F10078B
:1058200031F0C80164E170E00E948A2EEB01BE01F4
:10583000872D0E94742B7C0197FF09C00F3F100732
:10584000B1F3C4010E940A1B0817190780F7E5018C
:10585000CA0CDB1CCC15DD0511F0F7FE09C084E98C
:105860008093BC00C701CDB7DEB7EDE00C94BF2E2E
:10587000B80189910E94CC2B7C01ECCFB0E0A0E074
:10588000E4E4FCE20C94A32E782E5B016A0189010A
:105890000E94191B4C01C1E0D0E00431110558F001
:1058A000C5E0D0E00F3F100731F0C80164E170E0BF
:1058B0000E948A2EEB01BE01872D0E94742B7C0171
:1058C00097FF09C00F3F1007B1F3C4010E940A1BE4
:1058D0000817190780F7E501CA0CDB1CCC15DD059C
:1058E00011F0F7FE09C084E98093BC00C701CDB771
:1058F000DEB7EDE00C94BF2EFE018491B8010E944A
:10590000CC2B7C012196EACFB0E0A0E0EAE8FCE2F3
:105910000C94A22E682E762E5A0169010E94191B42
:105920004C01C1E0D0E00431110558F0C5E0D0E0F1
:105930000F3F100731F0C80164E170E00E948A2E29
:10594000EB01BE01862D0E94742B7C0197FF1DC0C8
:105950000F3F1007B1F3C4010E940A1B0817190773
:1059600080F784E98093BC00C701CDB7DEB7EEE0D5
:105970000C94BE2EB80189910E94CC2B7C01CC16D0
:10598000DD0679F3F7FEF6CFECCFB801872D0E9444
:10599000CC2B7C01E501CA0CDB1CF1CF8EE14A9BCC
:1059A00002C08150E1F74A9BFECF08955A9880E2E9
:1059B0008A95F1F75A9A0895FC013BE03A95F1F780
:1059C00098E020E080E031E040E14A95F1F7880F6F
:1059D0004A9B02C08160232742E04A95F1F700000C
:1059E00040E14A95F1F7915079F790E19A95F1F7F6
:1059F00099B132E03A95F1F7000040E14A95F1F7AC
:105A000092FB992790F992272081920F9083089515
:105A1000A1E0B0E0EEE0FDE20C94AA2E19828C0128
:105A20007C01E60EF11C0E151F0541F481E0998101
:105A3000911180E02196E6E00C94C62E0E94CE2CB7
:105A4000CE0101960E94DC2CF80181938F01EBCFEF
:105A5000529A5A9A089552985A9AEA9AE9E6F0E0C8
:105A600080818F7C808308956150770B91E001C025
:105A7000990F6A95EAF720E031E0911108C02223DE
:105A800091F05A9A80E28A95F1F75A980895492F31
:105A9000482339F05A9A232740E24A95F1F7969520
:105AA000ECCF5A98F9CF5A98EDCFFF920F931F93EE
:105AB000CF93DF93EC018C01060F111DC017D107A6
:105AC00029F4CDB7DEB7E5E00C94C72EF9900E941B
:105AD000D62C68E08F2D0E94342DF0CF1F920F92AC
